:400000000080002011000000410800004108000080B500AF024A034B1B68136000F042FCBC760040FA46004010B5054C237833B9044B13B10448AFF300800123237010BD47
:400040004881FF1F000000005C2B0000084B10B51BB108490848AFF300800848036803B910BD074B002BFBD0BDE81040184700BF000000004C81FF1F5C2B0000C880FF1FF4
:4000800000000000B0B582B002AF62B600F0F4FD01F08CF901F0ACFA4B4801F025FA4B4801F00EFB00F000FE494801F0FBF9494B1B78002BFBD072B600F0A0F803461A46E8
:4000C000454B1A70012001F069FDCC2000F0B8F84E2000F0B5F8002000F0B2F8002000F0AFF8002000F0ACF800F088F803461A46394B1A70CC2000F0A3F8442000F0A0F828
:400100000C2001F0EBFD5E2001F048FD042001F0E5FD4FF4487001F041FD00F06FF803461A462D4B1A70012001F038FDCC2000F087F8BE2000F084F800F0B6F803461A46B0
:40014000264B1A7000F0B0F803461A46244B1A70234B1B781B021AB2204B1B781BB213431BB29AB21F4B1A801E4B1B88184601F0C3FE03464FF08341184601F0C9FF03465A
:400180001A46194B1A60194B1B68184602F05CF80446174B1B68184602F056F80546124B1B68184602F050F8034600932B4622461049114802F0AEF80F4801F073F9054BE3
:4001C00000221A7062B672E70D03000049030000602B00006C81FF1F7481FF1FC881FF1FCC81FF1FC281FF1F7081FF1FC481FF1FBC81FF1F702B00009C81FF1F80B582B0A0
:4002000000AF0023FB71002001F04AFD4FF4F07001F0E6FC012001F043FD502001F0E0FC01F07AFD0346002B01D10123FB714FF4E17001F0D5FCFB7918460837BD4680BD3E
:4002400080B584B000AF0346FB710023FB6023E0FA79FB6842FA03F303F00103002B0CD0002001F01DFD012001F0BAFC012001F017FD3C2001F0B4FC0BE0002001F010FD0B
:400280003C2001F0ADFC012001F00AFD0F2001F0A7FCFB680133FB60FB68072BD8DD00BF1037BD4680BD00BF80B582B000AF0023FB7100233B6020E0002001F0F1FC0220A8
:4002C00001F08EFC012001F0EBFC0A2001F088FC01F022FD0346002B09D001223B6802FA03F35AB297F9073013435BB2FB71322001F076FC3B6801333B603B68072BDBDD80
:40030000FB7918460837BD4680BD00BF80B582B000AF00F0D9FC0346184600F013FD03467B60074B1A687B681344054A1360054B1B680133034A136000BF0837BD4680BD32
:400340006481FF1F6881FF1F80B500AF01F072F901F00CF9114B1A68114B1B68B2FBF3F3184601F0C9FD02460E4B1A600D4B1B680D49184601F0CCFE03461A460B4B1A60FA
:40038000064B00221A60064B00221A6001F0E2F8074B01221A7000BF80BD00BF6481FF1F6881FF1FC481FF1F00002041BC81FF1F6C81FF1F80B582B000AF786039603A6881
:4003C0000021786801F09DFF00BF0837BD4680BD80B584B000AFF860B9607A607A68B968F86801F083FF00BF1037BD4680BD00BF80B483B000AF0346FB71FEE780B487B0D8
:4004000000AF7860396000233B6100237B6127E07B699B007A6813441B68BB60BB68FB73BB6823F0FF03BB6014E03B695B003A6813441B781A46BB68134419463B695B00E6
:400440003A6813445B780B703B6901333B61FB7B013BFB73FB7B002BE7D17B6901337B617B691C2BD4D900BF1C37BD4680BC704780B582B000AF3F4B00221A803E4B50221D
:400480001A703E4B19221A803D4B18221A7004223C493D48FFF79CFF3C4B02221A704FF0402308221A703A4B03221A70394B3A4A1278D2B21A70394B08221A80384B41F2EA
:4004C00051221A800023FB7019237B6014E0FB785B00DAB2334B1B78DBB203F00103DBB21343DBB203F00303FB704FF4F07001F023FC7B68013B7B607B68002B02D0FB7893
:40050000032BE4D17B68002B02D10320FFF770FF254B4FF480721A80234B07221A70234B00221A70224B48221A701F4B00221A70204B02221A70204B04221A701F4A1F4B77
:400540001B78DBB243F00303DBB213701C4A1C4B1B78DBB243F00103DBB21370194A194B1B78DBB263F07F03DBB2137000BF0837BD4680BD804000408240004084400040CE
:400580008640004064050048004100400043004000420040A146004008010049224200402042004025420040044000400640004008400040014000400B400040A2430040D5
:4005C000A1430040A043004080B483B000AF0E4B1B78FB710D4AFB7903F00703DBB213700B4AFB791B09DBB213700A4B01221A70094B10221A70094B44221A7000BF0C3719
:40060000BD4680BC704700BFCF0100496E5800406F5800400D510040005B00407658004080B483B000AF0346FB71FB79012B0ED8FB79094A52F82330FA79074951F8222095
:400640001178FA790548825C0A43D2B21A7000BF0C37BD4680BC70479C2B0000A42B000080B483B000AF0346FB71FB79012B10D8FB790A4A52F82330FA79084951F8222063
:400680001178FA790648825CD243D2B20A40D2B21A7000BF0C37BD4680BC70479C2B0000A42B000080B586B000AF72B64F4A4F4B1B78DBB243F00403DBB213700023FB7521
:4006C00013E0FA7D13465B0013445B00484A13443B613B691A683B699B889BB219461046FFF768FEFB7D0133FB75FB7D072BE8D90023FB751CE0FA7D13469B0013445B0027
:400700003C4A1344FB60FB681B68BB60FB685B687B60FB681A7A5B7A1B0213437B807B881A467968B868FFF753FEFB7D0133FB75FB7D012BDFD930494FF09040FFF75EFE48
:400740002E4B0A221A702E4A2D4B1B78DBB243F00203DBB213702B4A2A4B1B78DBB243F00203DBB21370284A274B1B78DBB243F04003DBB21370254A244B1B78DBB243F0E5
:400780001003DBB21370082221492248FFF720FE0A2221492148FFF71BFE082220492148FFF716FE0A2220492048FFF711FE204A1F4B1B78DBB243F00803DBB213701D4B44
:4007C00060221A70FFF754FE1A4B80221A701A4B01221A70FFF7F8FE0E220B491748FFF7F7FD00BF1837BD4680BD00BFE8460040A82B0000D82B0000740000488358004021
:400800000350014013500140A0430040C24300403C0500480251004044050048C051004050050048125100405805004820510040224300400048004004000840B0430040D8
:4008400080B500AF01F026FD03461B680C2B00D1FEE7FEE780B584B000AF78600F4B1A687B6813441A460E4BD31A802B09DC0B4B1B68FB60094B1A687B681344074A13609E
:4008800007E001F007FD02460C2313604FF0FF33FB60FB6818461037BD4680BDCC80FF1FE881FF1F80B586B000AF224B7B61224B3B61204B7B6135E03B691B68FB603B697F
:4008C0005B68BB603B699B683B6000237B600CE0FB681A68BB681A60BB680433BB60FB680433FB607B6804337B607A683B689A42EED13B69DB683B6000237B6008E0BB6862
:4009000000221A60BB680433BB607B6804337B607A683B689A42F2D13B6910333B617B69013B7B617B69002BC6D101F0B9FCFFF7A9FBFEE701000000482C000080B582B067
:4009400000AF184B184A1A60184A184B1B6843F40073136000237B600FE07B68032B04D8134A7B6852F8233000E0124B12497A6841F822307B6801337B607B682F2BECD974
:400980000E4B1B78DAB20E4B1A700E4B0A4A1A60FFF788FE0C4B00221A6000BF0837BD4680BD00BF0CED00E00004FA0514ED00E000000000410800000080FF1FBC76004033
:4009C000C480FF1F08ED00E0C080FF1F80B582B002AF414B01221A70404B00221A70102000F0A8FF102001F08BF80721012001F033F93B4B04221A703A4B00221A703A4B1D
:400A000000221A70394A394B1B78DBB243F01803DBB21370364B00221A70364B00221A70354B00221A70354B0A221A70344B00221A70344B00221A70334B12221A70334BB9
:400A400013221A70324B00221A70324B14221A70012300930C234FF400424FF40041032000F096FB0223009310234FF4004249F2DA01002000F08CFB0323009310234FF472
:400A8000004249F2DA01002000F082FB0423009310234FF4004249F2DA01002000F078FB1D4A0D4B1B78DBB2013B1C499B000B449B7813701A4A084B1B78DBB2013B1749D3
:400AC00031F823301380044B1B78DBB2184600F057F900BFBD4680BDD080FF1F7881FF1F96580040975800409E580040075B004093580040885B0040895B00408058004097
:400B0000815800408358004088580040895800408D580040014E00400E4E00408081FF1F0C4E004080B582B000AF01F024F90346FB71434B1B78BB71424A424B1B78DBB2D8
:400B400043F00103DBB213703E4A3E4B1B78DBB243F01003DBB213703B4A3B4B1B78DBB243F00103DBB21370374A374B1B78DBB243F01003DBB21370344A344B1B78DBB29F
:400B800043F00203DBB21370314A314B1B78DBB243F00203DBB213702E4A2E4B1B78DBB243F00303DBB21370032001F019F8274A264B1B78DBB223F00203DBB21370244A77
:400BC000234B1B78DBB223F00203DBB21370224A214B1B78DBB243F00603DBB213701F4B7A221A701E4A1E4B1B78DBB243F00103DBB213701B4A1B4B1B78DBB243F0010311
:400C0000DBB21370184A184B1B78DBB243F00103DBB21370154A154B1B78DBB243F00103DBB21370124B02221A60124B02221A60FB79184601F0A3F800BF0837BD4680BDC0
:400C4000D080FF1FAA430040BA430040F8460040F9460040915800407758004082580040A1430040B1430040A2430040B243004080E200E000E100E080B500AF084B1B78CE
:400C8000002B09D1074B1B78DBB2002B01D1FFF79DFE034B01221A70FFF744FF00BF80BD7A81FF1F7B81FF1F80B400AF054A054B1B78DBB243F00103DBB2137000BFBD4621
:400CC00080BC7047004E004080B483B000AF174B1B78DBB203F003037B717B79012B03D8134B1B88FB8011E0114B1B78DBB2FB80104B1B78DBB29BB21B029AB2FB8813438D
:400D0000FB807B79032B01D10B4B1B780B4B1B78DBB2002B02D00A4B00221A70B7F9063018460C37BD4680BC704700BF144E0040104E0040114E0040124E00407981FF1F14
:400D40007881FF1F80B485B000AF78600A4B1B687A68D31A7B607B684FF47A7202FB03F2064B1B6892FBF3F3FB81B7F90E3018461437BD4680BC70477C81FF1FDC81FF1F00
:400D800080B582B000AF0346FB71C34B00221A70FB79012B66D1C14B38221A70C04B06221A70C04B08221A70BF4B00221A70BF4B00221A70BE4B1F221A70BE4B00221A7076
:400DC000BD4B00221A70BD4B00221A70BC4B01221A70BC4B14221A70BB4B04221A70BB4B18221A70BA4B00221A70BA4B11221A70B94B12221A70B94B00221A70B84B012285
:400E00001A70B84B11221A70B74B19221A70B74B97221A70442000F073FAB54B58221A70B44B00221A70B44B05221A70B34B02221A70B34B00221A70B24B00221A7000201D
:400E400000F0A6FCB04B40F29B221A600121052000F0B2FC0121BA2000F094FDAB49012000F0D2FEFB79022B66D18C4B38221A708B4B04221A708B4B06221A708A4B0022AD
:400E80001A708A4B00221A70894B3F221A70894B00221A70884B00221A70884B00221A70874B01221A70874B50221A70864B27221A70864B2C221A70854B00221A70854B04
:400EC00055221A70844B5A221A70844B05221A70834B01221A70834B11221A70824B19221A70824B97221A70442000F009FA804B58221A707F4B00221A707F4B05221A70DD
:400F00007E4B02221A707E4B00221A707D4B00221A70002000F03CFC7B4B4FF47A421A600121052000F048FC0121252000F02AFD7749012000F068FEFB79032B66D1574B1F
:400F400038221A70564B04221A70564B06221A70554B00221A70554B00221A70544B3F221A70544B00221A70534B00221A70534B00221A70524B01221A70524B50221A7005
:400F8000514B27221A70514B2C221A70504B00221A70504B55221A704F4B5A221A704F4B05221A704E4B01221A704E4B11221A704D4B19221A704D4B97221A70442000F058
:400FC0009FF94B4B58221A704A4B00221A704A4B05221A70494B02221A70494B00221A70484B00221A70002000F0D2FB464B4FF47A421A600121052000F0DEFB0121252019
:4010000000F0C0FC4349012000F0FEFDFB79042B40F0A980214B38221A70214B04221A70204B06221A70204B00221A701F4B00221A701F4B3F221A701E4B00221A701E4BE7
:4010400000221A701D4B00221A701D4B01221A701C4B50221A701C4B27221A701B4B2C221A701B4B00221A701A4B55221A701A4B5A221A70194B05221A70194B01221A70B7
:40108000184B11221A70184B19221A70174B97221A70442040E000BF7981FF1F004E0040024E0040034E0040044E0040054E0040064E0040084E0040094E00400A4E0040BB
:4010C000144E0040845800408558004086580040875800408A5800408B5800408C5800408E5800408F580040905800409158004094580040955800409A5800409B58004013
:401100009C5800409D580040DC81FF1F7D130000891300009513000000F0F2F8144B58221A70144B00221A70134B05221A70134B02221A70124B00221A70124B00221A7082
:40114000002000F025FB104B4FF47A421A600121052000F031FB0121252000F013FC0B49012000F051FD00BF0837BD4680BD00BF94580040955800409A5800409B58004034
:401180009C5800409D580040DC81FF1FA113000090B587B000AF0446084611461A462346FB710346BB800B467B801346BB7197F82830002B00F08B8097F82830042B00F2DE
:4011C0008680FB79013B092B4AD801A252F823F0F91100006112000061120000F91100006112000061120000131200002D1200006112000047120000BB790F2B04D9374B06
:401200001B78DBB2FB752EE0354B1B78DBB2FB7529E0BB790F2B04D9324B1B78DBB2FB7521E0314B1B78DBB2FB751CE0BB790F2B04D92E4B1B78DBB2FB7514E02C4B1B7844
:40124000DBB2FB750FE0BB790F2B04D9294B1B78DBB2FB7507E0284B1B78DBB2FB7502E00023FB7500BFBA8897F917305B0113443B617B883A6902FB03F3FB60FB68DB0B70
:40128000BB82BB790D2B12D8BA8ABB79C3F10E0342FA03F3BB8297F82830013BBA790132D1B2164A9B0013440A469A7007E097F82830013B114A9B0013440F229A7097F816
:4012C0002830013B0D49BA8A21F8232002E0002000F058FC00BF1C37BD4690BD180100491C010049190100491D0100491A0100491E0100491B0100491F0100498081FF1F71
:4013000080B584B000AF0346FB7100F034FD0346FB73174A164B1B78DBB243F00303DBB21370144A134B1B78DBB243F00303DBB21370114AFB791370032000F051FC0C4AB0
:401340000B4B1B78DBB223F00303DBB21370094A084B1B78DBB223F00303DBB21370FB7B184600F00CFD00BF1037BD4680BD00BFF8460040F94600409258004080B400AF03
:4013800000BFBD4680BC704780B400AF00BFBD4680BC704780B400AF00BFBD4680BC704780B400AF00BFBD4680BC704780B500AF064B1B78002B04D100F00AF8034B012285
:4013C0001A7000F025F800BF80BD00BF9081FF1F80B400AF094B72221A70094B20221A70084B06221A70084B47221A70074B00221A7000BFBD4680BC704700BF886500400D
:401400008864004029650040396500408B65004080B582B000AF00F0AEFC0346FB71114A104B1B78DBB243F02003DBB213700E4A0D4B1B78DBB243F01003DBB213700B4A88
:401440000A4B1B78DBB243F01003DBB2137000F07FFBFB79184600F092FC00BF0837BD4680BD00BF98650040986400409B65004080B483B000AF0346FB7100BF074B1B78C2
:40148000DBB203F00403002BF8D1054AFB79137000BF0C37BD4680BC704700BF6B6500404864004080B584B000AF78600023FB810C4B1B78002B10D009E0FB897A6813448E
:4014C0001B781846FFF7D4FFFB890133FB81FB897A6813441B78002BEFD100BF1037BD4680BD00BF9081FF1F80B582B000AF786000F03CF8786800F009F8072000F018F885
:4015000000F028F800BF0837BD4680BD80B485B000AF7860054B1B68FB60FB68B4337A681A6000BF1437BD4680BC704708ED00E080B483B000AF0346FB71054AFB795B01DA
:40154000DBB2137000BF0C37BD4680BC704700BF1DE400E080B400AF034B4FF000521A6000BFBD4680BC704700E100E080B400AF034B4FF000521A6000BFBD4680BC704720
:4015800080E100E080B582B000AF40F2CF7000F05DF840F2CF7000F075F800F0ECFB0346FB710A4A094B1B78DBB243F01003DBB21370FB79184600F0E2FB00F073F801208B
:4015C00000F028F800BF0837BD4680BD9B64004080B400AF054A054B1B78DBB263F07F03DBB2137000BFBD4680BC70477964004080B500AF064B1B78002B04D1FFF7C2FF86
:40160000034B01221A70FFF7E3FF00BF80BD00BF9281FF1F80B483B000AF0346FB71044AFB79137000BF0C37BD4680BC704700BF8B64004080B400AF034B1B78DBB2184646
:40164000BD4680BC704700BF6B64004080B483B000AF0346FB80044AFB88138000BF0C37BD4680BC704700BF5468004080B400AF034B1B889BB21846BD4680BC704700BF81
:401680009468004080B483B000AF0346FB80044AFB88138000BF0C37BD4680BC704700BF1468004080B500AF01E0FFF7DFFFFFF7C1FF034603F00803002BF6D100BF80BDB9
:4016C00080B582B000AF786000F03CF8786800F009F8072000F018F800F028F800BF0837BD4680BD80B485B000AF7860054B1B68FB60FB6840337A681A6000BF1437BD4635
:4017000080BC704708ED00E080B483B000AF0346FB71054AFB795B01DBB2137000BF0C37BD4680BC704700BF00E400E080B400AF034B01221A6000BFBD4680BC704700BF2A
:4017400000E100E080B400AF034B01221A6000BFBD4680BC704700BF80E100E080B582B000AF0023FB7106E0FB791846FEF778FFFB790133FB71FB79012BF5D9034BFF226B
:401780001A7000BF0837BD4680BD00BFD180FF1F80B582B000AF0346FB71FFF7DFFFFB791846FEF73DFF034AFB79137000BF0837BD4680BDD180FF1F80B584B000AF03463F
:4017C0000A46FB8013467B7100F0CEF80346FB7300F0A4F80346BB81FA88BB899A4200F08880464B1B78DBB203F00103FB72FB7B002B20D1BB89002B02D0FB88002B1AD140
:40180000BB89002B0BD13E4AFB8813803D4A3D4B1B78DBB223F04003DBB2137069E0394A384B1B78DBB243F04003DBB21370344AFB8813805DE0FB7A002B33D0324B002222
:401840001A70324B01221A70314B00221A70314A304B1B78DBB203F07F03DBB21370294B1B78DBB203F00803002B02D0FB88002B18D1294ABB891380234B07221A7000BFA1
:40188000214B1B78DBB203F00103002BF8D11B4A1A4B1B78DBB223F00103DBB213701A4B00221A70154B1B78DBB203F00103002B13D0194AFB881380134A7B79002B01D044
:4018C000032300E00123137000BF0F4B1B78DBB203F00103002BF8D10BE0094AFB8813800649064B1B78DAB2FB7A1343DBB20B70FFE700BF1037BD4680BD00BFA243004021
:401900008040004082400040014000401040004014400040084000400240004080B400AF034B1B889BB21846BD4680BC704700BF8040004080B483B000AF0346FB710949A5
:40194000084B1B78DBB25AB297F9073023F007035BB213435BB2DBB20B7000BF0C37BD4680BC70478240004080B400AF044B1B78DBB203F00703DBB21846BD4680BC704762
:401980008240004080B584B000AF03460A46FB8013467B7100F0CEF80346FB7300F0A4F80346BB81FA88BB899A4200F08880464B1B78DBB203F00103FB72FB7B002B20D1F5
:4019C000BB89002B02D0FB88002B1AD1BB89002B0BD13E4AFB8813803D4A3D4B1B78DBB223F04003DBB2137069E0394A384B1B78DBB243F04003DBB21370344AFB88138006
:401A00005DE0FB7A002B33D0324B00221A70324B01221A70314B00221A70314A304B1B78DBB203F07F03DBB21370294B1B78DBB203F00803002B02D0FB88002B18D1294A17
:401A4000BB891380234B07221A7000BF214B1B78DBB203F00103002BF8D11B4A1A4B1B78DBB223F00103DBB213701A4B00221A70154B1B78DBB203F00103002B13D0194A2E
:401A8000FB881380134A7B79002B01D0032300E00123137000BF0F4B1B78DBB203F00103002BF8D10BE0094AFB8813800649064B1B78DAB2FB7A1343DBB20B70FFE700BF67
:401AC0001037BD4680BD00BFA14300400041004002410040014000401440004010400040084000400240004080B400AF034B1B889BB21846BD4680BC704700BF0041004014
:401B000080B483B000AF0346FB710949084B1B78DBB25AB297F9073023F007035BB213435BB2DBB20B7000BF0C37BD4680BC70470241004080B400AF044B1B78DBB203F0ED
:401B40000703DBB21846BD4680BC70470241004080B400AF094A094B1B78DBB243F00203DBB21370064A064B1B78DBB243F00203DBB2137000BFBD4680BC7047A243004022
:401B8000B243004080B483B000AF0346FB7101BE00BF0C37BD4680BC704700BF80B582B000AF786008E00C4B1B68184600F0C4F87B68A3F500437B607B68B3F5004FF2D8B8
:401BC000064B1B687A6802FB03F3184600F0B4F800BF0837BD4680BDE080FF1FD880FF1F80B582B000AF0346FB80FB88054A127802FB03F3184600F09FF800BF0837BD4601
:401C000080BD00BFDC80FF1F80B584B000AF03463960FB710F4B1B68FB60FB791F2B02D90020FFF7AFFFFB7903F01F0310339B00FA6813441B68BB60FB7903F01F031033A9
:401C40009B00FA6813443A681A60BB6818461037BD4680BD08ED00E080B582B000AF03460A46FB711346BB71BB79072B02D90020FFF788FFFB791F2B02D90020FFF782FF69
:401C8000FB7903F01F0303F1604303F56443BA795201D2B21A7000BF0837BD4680BD00BF80B485B000AF0346FB710B4B1B78DBB223F04003FB730849FB799B01DBB203F0EC
:401CC0004003DAB2FB7B1343DBB20B7000BF1437BD4680BC704700BF2051004080B483B000AF0346FB710B490A4B1B78DBB25BB223F00E035AB297F9073003F00E035BB228
:401D000013435BB2DBB20B7000BF0C37BD4680BC704700BF1650004080B400AF054B1B78DBB203F040039B09DBB21846BD4680BC704700BF21510040142816D902B4012159
:401D400014381049097811F0C001890904B40E4A515C04BC00BF00BF00BF8841FDD500BF00BF02BC704700BF00BF70F10400FCD570470B050709EFF3108072B6704780F352
:401D80001088704700480040721D000080F0004002E000BF81F0004142001FBF5FEA410392EA030F7FEA226C7FEA236C6AD04FEA1262D2EB1363C1BFD21841404840414082
:401DC000B8BF5B42192B88BF704710F0004F40F4000020F07F4018BF404211F0004F41F4000121F07F4118BF494292EA030F3FD0A2F1010241FA03FC10EB0C00C3F12003DE
:401E000001FA03F100F0004302D5494260EB4000B0F5000F13D3B0F1807F06D340084FEA310102F10102FE2A51D2B1F1004F40EBC25008BF20F0010040EA03007047490059
:401E400040EB000010F4000FA2F10102EDD1B0FA80FCACF1080CB2EB0C0200FA0CF0AABF00EBC25052421843BCBFD0401843704792F0000F81F4000106BF80F400000132F3
:401E8000013BB5E74FEA41037FEA226C18BF7FEA236C21D092EA030F04D092F0000F08BF0846704790EA010F1CBF0020704712F07F4F04D1400028BF40F00040704712F125
:401EC00000723CBF00F50000704700F0004343F0FE4040F4000070477FEA226216BF08467FEA23630146420206BF5FEA412390EA010F40F4800070474FF0000304E000BF64
:401F000010F0004348BF40425FEA000C08BF704743F0964301464FF000001CE050EA010208BF70474FF000030AE000BF50EA010208BF704711F0004302D5404261EB4101E8
:401F40005FEA010C02BF84460146002043F0B64308BFA3F18053A3F50003BCFA8CF2083AA3EBC25310DB01FA02FC634400FA02FCC2F12002BCF1004F20FA02F243EB020079
:401F800008BF20F00100704702F1200201FA02FCC2F1200250EA4C0021FA02F243EB020008BF20EADC7070474FF0FF0C1CEAD0521EBF1CEAD15392EA0C0F93EA0C0F6FD02F
:401FC0001A4480EA010C400218BF5FEA41211ED04FF0006343EA501043EA5111A0FB01310CF00040B1F5000F3EBF490041EAD3715B0040EA010062F17F02FD2A1DD8B3F10F
:40200000004F40EBC25008BF20F00100704790F0000F0CF0004C08BF49024CEA502040EA51207F3AC2BFD2F1FF0340EAC250704740F400004FF00003013A5DDC12F1190F54
:40204000DCBF00F000407047C2F10002410021FA02F1C2F1200200FA02FC5FEA310040F1000053EA4C0308BF20EADC70704792F0000F00F0004C02BF400010F4000F013AE6
:40208000F9D040EA0C0093F0000F01F0004C02BF490011F4000F013BF9D041EA0C018FE70CEAD15392EA0C0F18BF93EA0C0F0AD030F0004C18BF31F0004CD8D180EA0100C3
:4020C00000F00040704790F0000F17BF90F0004F084691F0000F91F0004F14D092EA0C0F01D142020FD193EA0C0F03D14B0218BF084608D180EA010000F0004040F0FE40E6
:4021000040F40000704740F0FE4040F4400070474FF0FF0C1CEAD0521EBF1CEAD15392EA0C0F93EA0C0F69D0A2EB030280EA010C49024FEA402037D04FF0805343EA1111E5
:4021400043EA10130CF000408B4238BF5B0042F17D024FF4000C8B4224BF5B1A40EA0C00B3EB510F24BFA3EB510340EA5C00B3EB910F24BFA3EB910340EA9C00B3EBD10F88
:4021800024BFA3EBD10340EADC001B0118BF5FEA1C1CE0D1FD2A3FF650AF8B4240EBC25008BF20F0010070470CF0004C4CEA50207F32C2BFD2F1FF0340EAC250704740F4AF
:4021C00000004FF00003013A37E792F0000F00F0004C02BF400010F4000F013AF9D040EA0C0093F0000F01F0004C02BF490011F4000F013BF9D041EA0C0195E70CEAD15369
:4022000092EA0C0F08D142027FF47DAF93EA0C0F7FF470AF084676E793EA0C0F04D14B023FF44CAF08466EE730F0004C18BF31F0004CCAD130F000427FF45CAF31F000435C
:402240007FF43CAF5FE700BF4FEA4002B2F1FE4F0FD34FF09E03B3EB12620DD94FEA002343F0004310F0004F23FA02F018BF404270474FF00000704712F1610F01D1420217
:4022800005D110F0004008BF6FF0004070474FF000007047014B1868704700BF4481FF1F0E4B70B51E460E4C0025E41AA410A54204D056F8253098470135F8E700F0B2FCCD
:4022C000084B094C1E46E41AA4100025A54204D056F8253098470135F8E770BD302C0000302C0000302C0000382C000010B5431E0A44914204D011F8014B03F8014FF8E76A
:4023000010BD03460244934202D003F8011BFAE7704700000EB400B54FF402719CB0ADF814106FF00041049107914FF6FF711DAB02900690084853F8042BADF8161000683A
:4023400002A9019300F064F8029B00221A701CB05DF804EB03B070474481FF1F2DE9F0478E6882469E420C46914698463ED88A8912F4906F3AD02568096902236F1A656987
:4023800005EB450595FBF3F57B1C43449D4238BF1D4653050FD5294600F040FB064698B13A462169FFF7A2FFA38923F4906343F08003A38113E02A4600F08EFB064670B9A7
:4023C0002169504600F0DEFA0C23CAF80030A3894FF0FF3043F04003A381BDE8F08726613E44266046466561ED1BA560464528BF464649463246206800F0A8FAA36800204C
:402400009B1BA36023681E442660BDE8F08700002DE9F04F9DB003938B8980461C060D4616460DD50B695BB9402100F0F7FA2860286118B90C23C8F80030CDE040236B61E8
:402440000023099320238DF82930DFF89CB130238DF82A3037463C4614F8013B1BB9B7EB060910D003E0252BF9D02746F3E74B46324629464046FFF771FF013000F0A7808B
:40248000099B4B4409933B78002B00F0A08000234FF0FF3204930793059206938DF853301A930126052221784E4800F041FA671C049B38B14B4A3C46801A06FA00F0184307
:4024C0000490EFE7D90644BF20228DF853201A0744BF2B228DF8532022782A2A03D0079A00210A200BE0039A111D12680391002A10DA524243F00200079204900BE027461A
:402500003B780134303B092B03D800FB02320121F5E701B107923B782E2B1ED17B782A2B0AD1039B02371A1D1B680392002BB8BF4FF0FF33059310E0002319460593781C34
:402540000A2407463A780130303A092A03D804FB01210123F5E703B1059103223978224800F0E6F940B14023CBEB000003FA00F0049B013718430490397806221B487E1C78
:402580008DF8281000F0D4F988B1194B33B9039B073323F007030833039314E003AB00932A46144B04A94046AFF3008007E003AB00932A460F4B04A9404600F093F8B0F1B8
:4025C000FF3F824603D0099B5344099342E7AB895B0601D4099801E04FF0FF301DB0BDE8F08F00BFEE2B0000F42B0000F82B0000000000005D2300002DE9F04791461F4694
:402600000A698B6806469342B8BF1346C9F8003091F843200C46DDF8208012B10133C9F800302368990642BFD9F800300233C9F80030256815F0060510D104F1190A07E0E8
:402640000123524639463046C04701301AD00135E368D9F800209B1A9D42F1DB94F843302268003318BF012392060FD5E118302081F843005A1C94F845102244023382F811
:40268000431003E04FF0FF30BDE8F08704F1430239463046C0470130F4D02268D9F80050E36802F00602042A08BF5D1B2269A3680CBF25EAE57500259342C4BF9B1AED18D1
:4026C0004FF000091A344D4509D00123224639463046C0470130D5D009F10109F3E70020BDE8F0872DE9F04317460A7E85B06E2A984606460C460C9B01F1430E00F0AE80E2
:4027000011D8632A22D009D8002A00F0BB80582A40F0CA8081F84520834955E0642A1ED0692A1CD0C0E0732A00F0B08009D86F2A2ED0702A40F0B8800A6842F020020A601E
:402740003EE0752A24D0782A3AD0ADE01A6801F14205111D1960136884F84230A8E021681A6811F0800F02D0111D196008E011F0400F02F10401196002D0B2F9003000E0D2
:402780001368002B3CDA2D225B4284F8432037E021681A6811F0800F02D0111D196007E011F0400F02F10401196001D0138800E01368227E5C496F2A14BF0A2208221BE0F6
:4027C00078225A4984F845202268186812F0800F00F104051D6003D1550601D5038800E00368D00744BF42F0200222601BB9226822F0200222601022002084F8430001E018
:4028000049490A226568002DA56008DB206820F0040020602BB9002D7DD175460CE0002B79D07546B3FBF2F002FB1033CB5C05F8013D03460028F5D1082A0BD12368DA07C4
:4028400008D5236962689A42DEBF302305F8013C05F1FF35C5EB0E0323612EE008681A6810F0800F496903D0101D1860136808E010F0400F02F104001860136801D01980F1
:4028800000E0196000232361754616E01A68111D1960156800216268284600F049F808B1401B6060636804E004F1420584F8422001232361002384F84330CDF800803B461A
:4028C00003AA21463046FFF797FE013002D14FF0FF3026E023692A4639463046C0470130F5D023689B0710D5002504F1190907E001234A4639463046C0470130E7D001355A
:40290000E368039A9B1A9D42F2DBE068039B9842B8BF184605E00B7804F1420584F842308AE705B0BDE8F083FF2B0000102C000010B5C9B202449042034605D01C78013048
:402940008C42F8D1184610BD002010BD884210B501EB020301D8421E0BE09842FBD28118D21AD34204D013F8014D01F8014DF8E710BD994204D011F8014B02F8014FF8E776
:4029800010BD000038B50546002944D051F8043C0C1F002BB8BFE41800F0D4F81E4A1368114613B96360146030E0A3420DD92268A018834201BF18685B6812182260636036
:4029C0000C6023E0A24203D813465A68002AF9D118681918A1420BD12168014458188242196013D110685268014419605A600DE002D90C232B6009E021686018824201BF31
:402A0000106852680918216062605C602846BDE8384000F098B838BD9881FF1F70B5CD1C25F0030508350C2D38BF0C25002D064601DBA94202D90C23336046E000F082F817
:402A4000234B1C681A462146A1B10B685B1B0ED40B2B03D90B60CC18CD501EE08C420BBF63684B681360636018BF0C4615E00C464968E9E7174C23681BB9304600F052F855
:402A800020602946304600F04DF8431C18D0C41C24F00304A0420DD12560304600F053F804F10B00231D20F00700C31A0ED05A42E25070BD211A304600F034F80130EBD17D
:402AC0000C233360304600F03EF8002070BD00BF9881FF1F9481FF1FF8B5074615460E4621B91146BDE8F840FFF798BF1AB9FFF749FF2846F8BD00F027F885420ED929469E
:402B00003846FFF78BFF044650B131462A46FFF7EDFB31463846FFF735FF01E03046F8BD2046F8BD38B5064C0023054608462360FDF790FE431C02D1236803B12B6038BD50
:402B4000E081FF1F7047704751F8040C0028BEBF091851F8043CC0180438704700000000434F4D20506F7274204F70656E0000007B2022414443223A202564202C224C4D0E
:402B80003335223A2025642C202244533138423230223A2025647D0D0A000000035B00402443004040000000305100404000F05100401000000001400010001401408006BA
:402BC000001B0140000100400140000A004C0140000200500140200060520040B40400480600801A0140BC04004880004300232D302B2000686C4C006566674546470030F0
:402C0000313233343536373839414243444546003031323334353637383961626364656600000000F8B500BFF8BC08BC9E4670474D0000003D090000F8B500BFF8BC08BCCA
:402C40009E46704729000000582C0000C880FF1F80000000A000000000000000E881FF1F01FF000000366E01C05D0000180000000000E02E00000000000000000000000017
:402C80000000000000000000000000000000000000000000EC2B000000000000000000000000000000000000000000000000000000000000000000000000000000000000FD
:402CC0000000000000000000000000000000000000000000E480FF1F0000000000000000000000000000000000000000000000000000000000000000000000000000000052
:402D00000000000000000000000000000000000000000000000000000000000000000000000000000000000000000000000000000000000000000000000000000000000093
:402D40000000000000000000000000000000000000000000000000000000000000000000000000000000000000000000000000000000000000000000000000000000000053
:402D80000000000000000000000000000000000000000000000000000000000000000000000000000000000000000000000000000000000000000000000000000000000013
:402DC00000000000000000000000000000000000000000000000000000000000000000000000000000000000000000000000000000000000000000000000000000000000D3
:020000040003F7
:0200000480007A
:4000000002640040026500400105014004060140010701404C08014040090140520A0140360B01400115014001170140461801403D190140051A0140441B014003400140F0
:40004000024101400442014004430140024401400145014003460140024701400548014006490140034C0140094D0140065001400251014088388B0D88728B0FE608B88049
:40008000BE40D804DF0118020202040C0610070109060A020C010D010F061028110612101301150716141A201C0C1E10200C22302401250229062A012B012D042E013107AC
:4000C00032023401363C38203A803B223E044046410345E0460C470B481649FF4AFF4BFF4EF04F44500C5418580459045A045B045C115D115F0166C06A406B0284098610FE
:400100008E039010920C9414980C9A11A410AC1CAE02B01FD280D804DB0ADC01DD90DF0100080302044405100680081009080B800C8A0E08100212201510164017441B023A
:400140001D101F44261127442DB02E08360137043A403B803C403E203F044410464047084C084D025480550857405C016402670873407808902497C098089B089C409E4075
:40018000A004A204A418AA40AB10C0F5C2FEC4F5CA70CCC0CE70D0C0D220D680D830DE02060C070309060A080B010F0510011206140C160317011B062401260E2A032B02F7
:4001C000320F35073A083B20405349FF4AFF4BFF4F0150185608580459045A0B5B045C115D995F016040624064406540668068806A806C806E808A018B018F019402A00126
:40020000A401B101B403B820BF01C053C5ECC620C80BC9FFCAFFCBFFCD83CE03CF01D018D401D604D804D904DA0BDB0BDC01DD99DF01E040E240E440E540E680E880EA803E
:40024000EC80EE800028012004200A100B800C08100813081640170818201A101C081D101E0820042308244029203008311038243B803E203F40422046204B404D014F4460
:40028000562058405A405B105C405D015F04600A6280660278027E808602C046C22CC436CA04CC06CE3ED042D218D6DCD88CDE81EC18B401001004020502082C091D0A03D2
:4002C0000C080F0210231101120C142F1504171819101A031B041C2F1D081F0420032102240C251D28042B022C012F02300F331C34103501362037023A023E503F4056024C
:400300005713580459045B045C115D105F01850389028D039701B303B908BF04C003C504C9FFCA07CBFFCC40CD20CEF0CF05D008D904DA04DD01DF01E040E1A8E240E320F3
:400340000532060107100D200E620F20166A1C401D021E492010252026482C0A2E042F40300835403608371138243B803C043D103F80401048104A2050085E0161206304F9
:400380006D106E046F017420758076298A48902493809441970499029C429DA09EA8A080A211A342A41AA620C0F0C2F0C4F0CAF0CCF2CE7ED002D680E840110135013F10B4
:4003C00059045F010402051106210C220E030F20164A17041C101D111F102220240127542C042E412F1033023480360837103D103E0644044522464847404C014F205402F6
:4004000056805D025E885F108012862089408A028C808F10911092449310940199029A219C029D509E829F10A020A122A24DA312ACC0AF10B412C0F0C2F0C4F0CAF0CC7176
:40044000CEE0D0B0D230D6F0E402EC1033803780CC309F80A78087809F80A780E610120813809F80C4407C20DE019C2045089C20D0019C20A50825102902A208C820CA406F
:400480003608A208AD02B510CC80EC10A508B420E8021040740484048840B508C408DE04E201EC08000201010C020D0110021C02000B070C80800000400000000021401AAA
:4004C000180300003C03020010000000000040003F600004084200091C60210027001860000004600000236004600000380C40031F1000600000200000000401420605004B
:4005000001000EC024FFFFFF62A0F0410C00000001000000040404041111000100000000000040020010301000101012000000000000000000000000000000000000000094
:4005400000000100800040808000800000000000000B0B0000000000400000400000000000000000BB001801000000000000000000000000000000000000000000000000D0
:40058000000000000000000000000000000000000000000000000000000000000000000000000000000000000000000000000000000000000000000000000000000000003B
:4005C00000000000000000000000000000000000000000000000000000000000000000000000000000000000000000000000000000000000000000000000000000000000FB
:4006000000000000000000000000000000000000000000000000000000000000000000000000000000000000000000000000000000000000000000000000000000000000BA
:40064000000000000000000000000000000000000000000000000000000000000000000000000000000000000000000000000000000000000000000000000000000000007A
:0200000490006A
:0400000000004005B7
:0200000490105A
:04000000BC90ACAF55
:0200000490303A
:02000000024CB0
:0200000490402A
:4000000000000000000000000000000000000000000000000000000000000000000000000000000000000000000000000000000000000000000000000000000000000000C0
:400040000000000000000000000000000000000000000000000000000000000000000000000000000000000000000000000000000000000000000000000000000000000080
:400080000000000000000000000000000000000000000000000000000000000000000000000000000000000000000000000000000000000000000000000000000000000040
:4000C0000000000000000000000000000000000000000000000000000000000000000000000000000000000000000000000000000000000000000000000000000000000000
:0200000490501A
:0C00000000012E16106900012E2812B518
:00000001FF