:400000000080002011000000810500008105000008B5044B1A6803F53F5302331A6000F0CFFA00BFFA46004010B5054C237833B9044B13B10448AFF300800123237010BDA2
:400040005081FF1F00000000301A0000084B10B51BB108490848AFF300800848036803B910BD074B002BFBD0BDE81040184700BF000000005481FF1F301A0000C880FF1F5E
:400080000000000008B5002000F0EEFB00F0FAFB114A136818441060012000F0E5FB00F0F1FB0E4A136818441060022000F0DCFB00F0E8FB0A4A136818441060032000F02D
:4000C000D3FB00F0DFFB074A136818441060064A13680133136008BDC481FF1FD481FF1FE881FF1FE481FF1FDC81FF1F70B500F053FE00F02FFE104D2A68104B1A60104C9B
:400100002268104B1A6010480268104B1A6010490A68104B1A60104A1668104B1E6000232B60236003600B60136000F00DFE01220B4B1A7070BD00BFC481FF1F9081FF1F8A
:40014000D481FF1FD081FF1FE881FF1F9481FF1FE481FF1FC881FF1FDC81FF1FE081FF1F6C81FF1F134B1B68134A1268B2FBF3F21249A1FB0202D20811480270114A126835
:40018000B2FBF3F2A1FB0202D2080F4802700F4A1268B2FBF3F2A1FB0202D2080C4802700C4A1268B2FBF3F3A1FB0323DB080A4A13707047E081FF1F9081FF1FCDCCCCCC50
:4001C000C081FF1FD081FF1F8C81FF1F9481FF1FD881FF1FC881FF1FCC81FF1F2DE9F041C4B062B60024039400F076FA00F024FB00F00CFE00F090FE28222146234800F009
:40020000EAFF03AA2146042000F094FE00F028FB1F4800F0A5FD1F4800F020FE1E4800F075FA00E000241D4B1B78002BFBD000221A4B1A70FFF796FFDFF8748098F80030B9
:40024000174D2A78174E31780191174F39780091164904A800F0C8FF04A800F057FA2D780A4B1D5598F80000234498723978197532789A778DF80C508DF80D008DF80E1004
:400280008DF80F2001340A2CCCDCCCE79881FF1F85000000ED000000341A00006C81FF1FC081FF1FCC81FF1FD881FF1F441A00008C81FF1FFEE700BFF0B40022174611E040
:4002C00050F82760F3B226F0FF0608E001EB420511F812406D78A5550132013BDBB2002BF4D10137242FEBD9F0BC704708B50A46002100F070FF08BD38B50E22254B1A8003
:400300001823254A1370192502321580023213700222224B1A7008224FF040231A70032103F5007319701E4B1B78DBB21D490B701D4B1A8041F25122023B1A8000240CE050
:400340001A4B1B7803F0010343EA440404F003044FF4F07000F0F8FE013D0DB1032CEFD115B90320FFF7A6FF114B4FF480721A8007221A7000220F490A7048200231087039
:400380001A700222033B1A700B4A137843F00303137038BD80400040824000400043004008010049A146004022420040254200400440004006400040A2430040F8B5164BB0
:4003C0001B78DBB2154E3478E4B2154F3D78EDB203F00701134A11701B090132137044F00303337045F003033B700F220E4B1A7040230E4A137002321370F0220C4B1A700E
:40040000202203331A700A2000F05AFC3D7034704422084B1A70F8BDCF010049F8460040F94600406E5800400D51004001590040205B00407658004008B500F0C1FE08BDB3
:4004400038B572B63A4A137843F00403137000240CE0384D630019194A0011462A44084691882858FFF742FF0134E4B2072CF0D900240BE02F49A300181942008818062218
:40048000416B006BFFF7D8FF0134E4B2002CF1D029494FF09040FFF70FFF04212748FFF725FF042226492748FFF7C6FF264A137843F0020313701032137843F00203137070
:4004C000224C237843F040032370A2F58632513A137843F01003137008221D491D48FFF7ABFF0A221C491D48FFF7A6FF05221C491C48FFF7A1FF08221B491C48FFF79CFF8D
:400500001B4A137843F0080313701A4D61232B70FFF7F2FE81232B700122174B1A70FFF74DFF0E2221461548FFF786FF38BD00BFE8460040781A0000940000480076004059
:40054000C00900480876004003500140A04300409C09004802510040A4090048C0510040B0090048CB510040B809004812510040224300400048004004000840B04300407A
:4005800008B500F0F1FD03680C2B00D1FEE7FEE708B5094B1A681044084BC31A802B02DC054B186005E000F0DFFD0C2303604FF0FF32104608BD00BFCC80FF1F1882FF1F4C
:4005C00008B5104E104D16E029686B68AC68002204E051F8040B43F8040B0432A242F8D1E868002203E0002143F8041B04328242F9D11035013E002EE6D100F0BBFDFFF7EF
:40060000EDFDFEE7010000000C1B000008B5114A114B1A60114A136843F40073136000230AE0032B03D80E4A52F8231000E00D490D4A42F8231001332F2BF2D90B4B1A78BC
:400640000B4B1A70084A0B4B1A60FFF7F9FE00F055FA08BD0004FA050CED00E014ED00E000000000810500000080FF1FBC760040C080FF1F08ED00E07222084B1A7020224E
:40068000043B1A700622A3F5B2731A70472210331A7000224D331A70704700BF8B65004010B500F059FD04460A4A137843F020031370043A137843F010031370A2F20712AE
:4006C000137843F01003137000F0E2F8204600F047FD10BD9B65004008B5054B1B7823B9FFF7CAFF0122024B1A70FFF7D9FF08BD6D81FF1F034B1B7813F0040FFAD1024B52
:4007000018707047606400404064004038B5074B1B782BB938BDFFF7EDFF0134A4B201E005460024285D0028F5D138BD6D81FF1F10B541F6FF734FF480420121022000F00F
:4007400093F9084C207041F6FF731A460121082000F0A8F96070044800F0C2F9022000F0C5F910BD7081FF1F8D08000070B52C4C207800F0F9F9607800F0F6F9294B1B7848
:40078000FF2B03D100F05EFA264B1870254D287806230246082100F06FFA214E341DA4B2224645F6A031287800F07AFA2978307800F01AFA6B78FF2B02D100F043FA687035
:4007C000184D687807230246082100F055FA164A92B22146687800F063FA114C6978607800F002FA0121207800F0A2F90121607800F09EF900F0B0FC0C4A137843F0200307
:40080000137000F0ADFC0A4B1A7842F001021A701A7842F002021A700422064B1A6070BD7081FF1FD080FF1FEC81FF1F976400407864004080E200E008B5074BDB6823B9B7
:40084000FFF776FF0122044BDA6000F0CBF8FFF78DFF024B1B7808BD7081FF1F6865004008B500F0CDF808BDC0F10300034B33F91030034A1088181A00B27047EC81FF1FBB
:40088000FC81FF1F08B500F0C3F808BD704700BF054A137843F0020313701032137843F002031370704700BFA243004008B50A280FD00C2802D0082806D102E04FF4805270
:4008C00009E04FF4807206E0002000F0F7F9002201E04FF480620021094B198042F2107303FB02F303F6C413064A82FB0302DB17C3EBE223044A1360044B198008BD00BFA0
:40090000F481FF1FAD8BDB68F881FF1FFC81FF1F10B500F021FC0446184A137843F0010313701032137843F00103137002F5AA520832137843F0030313701822104B1A709A
:40094000013B1A7842F040021A701A7802F0FC021A70C822053B1A700222A3F597530C3B1A70084A137843F0080313700A2000F0A7F9204600F0F4FB10BD00BFAB4300401D
:4009800006590040275B004010B504460A280DD00C2802D0082804D101E0C22207E0422205E0002000F08AF9C22200E08222034B1A702046FFF77AFF10BD00BF02590040E9
:4009C00008B5064A137843F0060313700C20FFF7DBFF0022024B1A8008BD00BF01590040F681FF1F08B5054B1B7823B9FFF7E8FF0122024B1A70FFF78BFF08BD8081FF1F31
:400A0000024A137843F00103137070470059004010B4124B1B881BB233B1104B1B881BB203EB83035C0001E00D4B1C680D4B1988411A09B242F2107303FB01F2002903DD48
:400A400004EBD470401003E004EBD47040104042831893FBF4F000B210BC7047F481FF1FF881FF1FF681FF1FF0B583B016461F460B4C012525700023019300932B460A4654
:400A80000146284600F0BCF83A463146207800F091F80221207800F07BF8207803B0F0BDD280FF1FF0B583B016461F460B4D00242C700194009423460A460146204600F01F
:400AC0009FF83A463146287800F074F80221287800F05EF8287803B0F0BD00BFD380FF1F014B1B689864704708ED00E04001C0B2014B1870704700BF02E400E00B4A7F2322
:400B000013708021517007E0DA0002F1804202F5F042013BDBB21370002BF5D1DB0003F1804303F5F04300221A707047D480FF1F172815D831B103010A495A5C42F02002F3
:400B40005A5405E0030107495A5C02F0DF025A540001044A835C43F00103835400207047012070471070004017280CD80001074BC1180A7942F004020A71C25C42F00102D4
:400B8000C254002070470120704700BF1070004017280BD80001064A835C03F0F103490001F00E011943815400207047012070471070004041F6FF73994201D14FF40051E5
:400BC00041F6FF739A4201D14FF40052172808D8C00000F1804000F5EC408180C280002070470120704700BF172805D8034B03EB001041720020704701207047107000401D
:400C000017281BD810B4C00000F1804404F5EC44D201D2B201F07F01114321709DF804201201D2B203F00F03134363709DF8083003F00F03A3700020E07001E001207047E7
:400C400010BC704710B500F087FA0A4B5B78182B0BD9084A1478013B5370E30003F1804303F5F0431B78137000E0FF2400F078FA204610BDD480FF1F10F0800F0CD111F439
:400C8000704F0BD1C00000F1804000F5F04001808270C37000207047012070470120704710F0800F08D1C00000F1804000F5F0408180C280002070470120704701BE704770
:400CC00008B5034B1B7A00FB03F000F03DFA08BDDC80FF1F70B504460E46074B1D681F2802D90020FFF7EAFF04F01F04103455F8240045F8246070BD08ED00E038B504467F
:400D00000D46072902D90020FFF7D8FF1F2C02D90020FFF7D3FF04F01F0000F1604000F564406D01EDB2057038BD00BF014B1B681864704708ED00E04001C0B2014B187089
:400D4000704700BF00E400E00122014B1A60704700E100E00122014B1A60704780E100E010B50446FFF7F6FF2046FFF7DFFF0720FFF7E2FFFFF7E8FF10BD00BF024A137885
:400D800043F080031370704776650040014B1870704700BF85650040014B1878704700BF65650040014B1880704700BF486A0040014B188880B27047886A0040014B188021
:400DC000704700BF086A004008B501E0FFF7F0FFFFF7E2FF10F0080FF8D108BD08B56320FFF7E0FF6320FFF7E9FF00F0B5F9064A137843F01003137000F0B2F9FFF7E4FFA0
:400E00000120FFF7C3FF08BD9565004008B5054B1B7823B9FFF7E2FF0122024B1A70FFF7ADFF08BD8181FF1F014B1B685864704708ED00E04001C0B2014B1870704700BFF2
:400E400001E400E00222014B1A60704700E100E00222014B1A60704780E100E010B50446FFF7F6FF2046FFF7DFFF0720FFF7E2FFFFF7E8FF10BD00BF10B50122124B1A70FF
:400E800081220E3B1A70082202331A70032211331A70002401331C704FF400420B4B1A6007210F20FFF72AFF09490F20FFF712FF084B1C70084B1C70084B1C70084B1C702D
:400EC000084B1C8010BD00BFD649004080E100E0810F00000282FF1F0682FF1F0C82FF1F0382FF1F0482FF1F08B500F035F9084A137843F0040313701032137843F0040390
:400F0000137000F02DF94FF40042024B1A6008BDA543004000E100E008B5054B1B7823B9FFF7AAFF0122024B1A70FFF7DDFF08BD8281FF1F10B44FF400440A4B1C6032B152
:400F40001346094A1360094B1880094B19800023084A1370084A13704FF40042074B1A6010BC704780E100E00882FF1F0082FF1F0482FF1F0C82FF1F0382FF1F00E100E09B
:400F8000654B1B78DBB213F0080F32D0634B1B7813F0010F1CD0624A1378DBB261490968CB5CDBB25D490B7014215B4B19701378DBB25D4A137013780133DBB213705B4A37
:400FC000137843F0110313700822594B1A708FE01022514B1A70554A137843F0120313700122534B1A70534A137843F0100313707EE013F0010F7BD04D4A1278D2B2042ABD
:401000001FD0082A3BD0012A69D1444B1B78DBB2494A13709BB2494A128892B293420CD210223D4B1A70444B1B783D4A13703E4A137004223E4B1A705AE00022364B1A70CE
:4010400056E0394B1A783E4B1B889BB29A4212D2324B1B7838490B7010222F4B1A70324A1378DBB22F4800680978C15413780133DBB213703CE00022274B1A7038E013F07C
:40108000020F1ED1284B1A782C4B1B889BB29A4210D2254A1378DBB222490968CB5CDBB21E490B7004211C4B197013780133DBB213701DE0FF22194B1A700422013B1A7031
:4010C00016E0FF22154B1A700022013B1A7017490B7803F0EF030B70154B1A7008E00023134A13700E4A13700F4A13700A4A1370094B1B7813F0200F0CD00C4A137803F098
:40110000EF03137000220A4B1A700A4A137803F0EF031370704700BFD7490040D84900400C82FF1F0882FF1F0382FF1F0682FF1F0282FF1FD64900408381FF1F0082FF1F5B
:401140000482FF1F000000000230800803D000BF01380046FCD17047EFF3108072B6704780F31088704700BF014B1868704700BF4C81FF1F0E4B70B51E460E4C0025E41A1E
:40118000A410A54204D056F8253098470135F8E700F0AAFC084B094C1E46E41AA4100025A54204D056F8253098470135F8E770BDF41A0000F41A0000F41A0000FC1A0000F1
:4011C00010B5431E0A44914204D011F8014B03F8014FF8E710BD03460244934202D003F8011BFAE7704700000EB400B54FF402719CB0ADF814106FF00041049107914FF64F
:40120000FF711DAB02900690084853F8042BADF81610006802A9019300F064F8029B00221A701CB05DF804EB03B070474C81FF1F2DE9F0478E6882469E420C469146984626
:401240003ED88A8912F4906F3AD02568096902236F1A656905EB450595FBF3F57B1C43449D4238BF1D4653050FD5294600F040FB064698B13A462169FFF7A2FFA38923F463
:40128000906343F08003A38113E02A4600F08EFB064670B92169504600F0DEFA0C23CAF80030A3894FF0FF3043F04003A381BDE8F08726613E44266046466561ED1BA560C9
:4012C000464528BF464649463246206800F0A8FAA36800209B1BA36023681E442660BDE8F08700002DE9F04F9DB003938B8980461C060D4616460DD50B695BB9402100F0BE
:40130000F7FA2860286118B90C23C8F80030CDE040236B610023099320238DF82930DFF89CB130238DF82A3037463C4614F8013B1BB9B7EB060910D003E0252BF9D0274694
:40134000F3E74B46324629464046FFF771FF013000F0A780099B4B4409933B78002B00F0A08000234FF0FF3204930793059206938DF853301A930126052221784E4800F014
:4013800041FA671C049B38B14B4A3C46801A06FA00F018430490EFE7D90644BF20228DF853201A0744BF2B228DF8532022782A2A03D0079A00210A200BE0039A111D12681F
:4013C0000391002A10DA524243F00200079204900BE027463B780134303B092B03D800FB02320121F5E701B107923B782E2B1ED17B782A2B0AD1039B02371A1D1B680392D9
:40140000002BB8BF4FF0FF33059310E0002319460593781C0A2407463A780130303A092A03D804FB01210123F5E703B1059103223978224800F0E6F940B14023CBEB000009
:4014400003FA00F0049B013718430490397806221B487E1C8DF8281000F0D4F988B1194B33B9039B073323F007030833039314E003AB00932A46144B04A94046AFF30080C1
:4014800007E003AB00932A460F4B04A9404600F093F8B0F1FF3F824603D0099B5344099342E7AB895B0601D4099801E04FF0FF301DB0BDE8F08F00BFB41A0000BA1A000066
:4014C000BE1A000000000000311200002DE9F04791461F460A698B6806469342B8BF1346C9F8003091F843200C46DDF8208012B10133C9F800302368990642BFD9F8003039
:401500000233C9F80030256815F0060510D104F1190A07E00123524639463046C04701301AD00135E368D9F800209B1A9D42F1DB94F843302268003318BF012392060FD530
:40154000E118302081F843005A1C94F845102244023382F8431003E04FF0FF30BDE8F08704F1430239463046C0470130F4D02268D9F80050E36802F00602042A08BF5D1BB2
:401580002269A3680CBF25EAE57500259342C4BF9B1AED184FF000091A344D4509D00123224639463046C0470130D5D009F10109F3E70020BDE8F0872DE9F04317460A7E83
:4015C00085B06E2A984606460C460C9B01F1430E00F0AE8011D8632A22D009D8002A00F0BB80582A40F0CA8081F84520834955E0642A1ED0692A1CD0C0E0732A00F0B080C9
:4016000009D86F2A2ED0702A40F0B8800A6842F020020A603EE0752A24D0782A3AD0ADE01A6801F14205111D1960136884F84230A8E021681A6811F0800F02D0111D1960AF
:4016400008E011F0400F02F10401196002D0B2F9003000E01368002B3CDA2D225B4284F8432037E021681A6811F0800F02D0111D196007E011F0400F02F10401196001D009
:40168000138800E01368227E5C496F2A14BF0A2208221BE078225A4984F845202268186812F0800F00F104051D6003D1550601D5038800E00368D00744BF42F02002226077
:4016C0001BB9226822F0200222601022002084F8430001E049490A226568002DA56008DB206820F0040020602BB9002D7DD175460CE0002B79D07546B3FBF2F002FB103323
:40170000CB5C05F8013D03460028F5D1082A0BD12368DA0708D5236962689A42DEBF302305F8013C05F1FF35C5EB0E0323612EE008681A6810F0800F496903D0101D186035
:40174000136808E010F0400F02F104001860136801D0198000E0196000232361754616E01A68111D1960156800216268284600F049F808B1401B6060636804E004F14205C3
:4017800084F8422001232361002384F84330CDF800803B4603AA21463046FFF797FE013002D14FF0FF3026E023692A4639463046C0470130F5D023689B0710D5002504F124
:4017C000190907E001234A4639463046C0470130E7D00135E368039A9B1A9D42F2DBE068039B9842B8BF184605E00B7804F1420584F842308AE705B0BDE8F083C51A000085
:40180000D61A000010B5C9B202449042034605D01C7801308C42F8D1184610BD002010BD884210B501EB020301D8421E0BE09842FBD28118D21AD34204D013F8014D01F8C3
:40184000014DF8E710BD994204D011F8014B02F8014FF8E710BD000038B50546002944D051F8043C0C1F002BB8BFE41800F0D4F81E4A1368114613B96360146030E0A342BF
:401880000DD92268A018834201BF18685B681218226063600C6023E0A24203D813465A68002AF9D118681918A1420BD12168014458188242196013D11068526801441960CD
:4018C0005A600DE002D90C232B6009E021686018824201BF106852680918216062605C602846BDE8384000F098B838BD8881FF1F70B5CD1C25F0030508350C2D38BF0C253C
:40190000002D064601DBA94202D90C23336046E000F082F8234B1C681A462146A1B10B685B1B0ED40B2B03D90B60CC18CD501EE08C420BBF63684B681360636018BF0C4673
:4019400015E00C464968E9E7174C23681BB9304600F052F820602946304600F04DF8431C18D0C41C24F00304A0420DD12560304600F053F804F10B00231D20F00700C31A27
:401980000ED05A42E25070BD211A304600F034F80130EBD10C233360304600F03EF8002070BD00BF8881FF1F8481FF1FF8B5074615460E4621B91146BDE8F840FFF798BFDC
:4019C0001AB9FFF749FF2846F8BD00F027F885420ED929463846FFF78BFF044650B131462A46FFF7EDFB31463846FFF735FF01E03046F8BD2046F8BD38B5064C0023054686
:401A000008462360FEF7C4FD431C02D1236803B12B6038BD1082FF1F7047704751F8040C0028BEBF091851F8043CC0180438704700000000434F4D20506F7274204F7065B5
:401A40006E0D0A0054656D70313A20256420432054656D70323A20256420432054656D70333A20256420432054656D70343A20256420430D0A000000C84900401900205155
:401A800000405000F0510040100000000140001000140140000800400140000A004C01400002005001402000605200409409004806004300232D302B2000686C4C006566B6
:401AC00067454647003031323334353637383941424344454600303132333435363738396162636465660000F8B500BFF8BC08BC9E4670474D0000000D060000F8B500BF5E
:401B0000F8BC08BC9E46704729000000201B0000C880FF1F88000000C800000000000000000000001882FF1FFFFFFFFF7F800000030000000000E02EC05D0000180000007F
:401B400000366E010000000000000000000000000000000000000000000000000000000000000000B21A0000000000000000000000000000000000000000000000000000F4
:401B8000000000000000000000000000000000000000000000000000000000000000000000000000EC80FF1F0000000000000000000000000000000000000000000000009B
:401BC00000000000000000000000000000000000000000000000000000000000000000000000000000000000000000000000000000000000000000000000000000000000E5
:401C000000000000000000000000000000000000000000000000000000000000000000000000000000000000000000000000000000000000000000000000000000000000A4
:401C40000000000000000000000000000000000000000000000000000000000000000000000000000000000000000000000000000000000000000000000000000000000064
:401C80000000000000000000000000000000000000000000000000000000000000000000000000000000000000000000000000000000000000000000000000000000000024
:020000040003F7
:0200000480007A
:4000000002520040015B00400264004003650040200001402F01014045020140440301402F0401404805014011060140490701402B08014033090140030B0140010D0140E6
:40004000010F014036140140451501402A1601404B170140381801404C190140311A0140481B01400C4001400B4101400B4201400743014005460140054701400D4801409C
:40008000124901400B4C0140114D01400D50014003510140000C010A2784800F8703850D87388B7203010501170119011F0137013F404034410245E0460B470C481649FFD8
:4000C0004AFF4BFF4EF04F44500C5401580459045A045B045D115F0166C06A406B02D804D904DF010048010803100440071008010A040B100C010E040F901110124015306A
:400100001680224029082AC02B462D182F0230483120330134013848390A3B103C403E043F18412549024A80504859065A805B20C0A5C27EC45ACA7FCC8FCE7FD007D60F39
:40014000E401050309030A030C030D031003110113021403180320022103220127032C012D012E022F023001310136023702580459045F01830185038A088B04940A950250
:400180009604980399039A049E05A010A403A60CA803AA04B210B304B40FB503B920BA20BE04BF10C002C504C9FFCA07CBFFCC40CD20CEF0CF05D008D804D904DA04DC01CE
:4001C000DD01DF01E040E1A8E240E3200308044005100608080409200B010E040F9010081280130414011680180819041C801F402004210823102540274028202A802BC63C
:400200002E082F8230053120324433013701384839023B253C403E043F184024410849084B018248908094489502960497109C409D049F01A008A280A404A520A742A8087A
:40024000AB20AD10AF01C0C2C277C49ECADFCC8FCE7FD0040510060807AC09DC0A0C0B220C100D1412801410150917D01821190C1A0E1B711E801F0320402203242125103D
:4002800026062740280C2A232F2030803260340F35E03610371F38883A203B203E41580459045C115F01D608D804D904DB04DD90DF01010802020308044005100720088A3E
:4002C00009200E040F10111012401305168219401A081B0921A029082A422B402F0231A0330835103701388039103B043C403E063F10480449104D104E045D205E806401FC
:40030000670A80088580908093159440960C972099089A809D109F01A108A404A520A74AAB40AC40AD40AE04B040B340C0E7C26FC49ECA1ACCAECEFED630D830E402E60430
:40034000EEA0580459045F0186018B018E028F02B301B402B601B702D602D732D804D904DB0EDF01008002100440068809080A460D080E040F801108128817201A061BE0E5
:400380002104228823202A882B4A2FA8328033203688388039083A203C083D083E88461047085B046140684A69047040730A78047D047F10808282208520864087218C40C8
:4003C0008E828F04930A944096049720980199409C829D209F21A108A301A404A642A742C0D5C27FC44ECAEFCC5CCE5ED602D808DE02E601EE0402010406050F08020C0424
:400400000F01110713081406150916011706180719061B091C061E01200824012502260629062D04310732073608370839803A283E4052035302580459045B045C115F0154
:40044000D608D804D904DB04DD90DF010008014005A4068008210E261225150217041D081E241F4025402602274028202B402C202D802F0830013104322033083611370667
:4004800039403A043B203E845A8063026C026D206F0283408B408D5091029280C0F5C2EAC437CA73CCE5CE5ED608D808E040E610EE0485019280E604928082402A013001BF
:4004C000405349FF4AFF4BFF4F015018580459045A0B5D095F016040624064406540668068806A806C806E808201A601B001BE01C013C5ECC620C80BC9FFCAFFCBFFCD8353
:40050000CE03CF01D018D401D604D804D904DA08DB08DD99DF01E040E240E440E540E680E880EA80EC80EE8000080208038005200740088809080A400C800D080E600F0404
:4005400010081304148016281A401B021E8028882C802E082F9232083382348036183B243F0442204620474048014D0556205D055E80660178017F01820193269640988154
:4005800099209B40A00DA108A208A380A702AF01B110B201B508C05EC2FDC476CAD5CC7BCE46D052D208D6D0D880DE11E018E810EA035280580459045B095D905F01820263
:4005C00083108401870888408A808B018C04901091019220950896089A049D029E01A002A304A408A504A820AA10AC80AE40AF02B51FB6FFB920BE40BF10D418D804D904AC
:40060000DB04DD10DF010080013202990380052208A009080A460B440D080E44100A110412401302148017081802200822102308282029202A412F9A3108329133083480BF
:400640003608380239043A103B403E045B0160086302740177407F048002840888048A048B1091049206930A964098019A109B029C02A04AA108A288A301A404A70AAB029E
:40068000AC04C05FC27FC43FCAFFCC5FCE4FD601D80CDE20E201E64DE804EA080208030406100A100F04160118041D011E022004240428012B032C043203330134043504F7
:4006C000361837023E503F10403441024205440145E046C0480A49FF4AFF4BFF4C624DA04EF04F41500C54015804590C5A045B0C5C095D015F016640670269106A306B109B
:400700006D106E106F12D804D904DF010008014002040401051808210C100D200E140F0211041201158017561C041D801E101F082690271028202F08300132203680394034
:400740003A053B203D803F0145A2468047044E024F0157105E407F0283108610880189048A208E408F1091C0920497209A019C219DA49E849F06A140A202A303A424A620B7
:40078000AA01AB40AC02B548C077C2EAC4F5CA22CC15CE9FD0F0D210D610DE10E020E201E420E644580459045F01803881C782C08318844985088622889289448A218B2066
:4007C0008C048FC3911C921893C29418970498E799809DDC9E189F01A1C0A218A418A5DFA8E7A918AD10B004B218B320B403B5D8B6E0B71FBBA0D602D712D804D904DB04A0
:40080000DC11DD10DF010008020504010518070108210D420E28114412101410151017021C011D1A1E401F402618270E28202A112C102D802E202F40300135103608374264
:4008400039403A043B203D203E495C046D106E086F01742075A4762889088A018B088D10900491C49320940198319A059B409DBC9F06A004A420A50AAD08B024B310B60499
:40088000C0F7C2FAC475CAF7CCF1CEFED640E018E8B0EA01EC10130216803080320837103B023E808302C430CC70CE60E4805004530256105F2097029F10A608A880AA0839
:4008C000D4E0D6203E1097029F10A608A804AF20B210B302CE20EA40EE80841096109F10A608AB01E440EE201B0424408040C608C80144028B10AB04D004E4012408281096
:40090000800881088E0896109C109F10A608C820CA40E280E6201302164070087508831086408F0299089F10A008AA10B404C430DC80DE20E010E220EA80128013201704C9
:400940007B087F408280830493109C02C40EDE0310607310874088408C208F0893109780A708AB20B402C408DC01E008E201E608E8080003010108030A030B010C030D0171
:40098000100311011A031B011C031D01003F03C0100A0000018000004300000000000000000F0F008300408083008300000300000002000000000000000B0B00000000003A
:4009C00000010000000000000000000000000000000000000000000000000000000000000000000000000000000000000000000000000000000000000000000000000000F6
:400A000000000000000000000000000000000000000000000000000000000000000000000000000000000000000000000000000000000000000000000000000000000000B6
:400A40000000000000000000000000000000000000000000000000000000000000000000000000000000000000000000000000000000000000000000000000000000000076
:400A80000000000000000000000000000000000000000000000000000000000000000000000000000000000000000000000000000000000000000000000000000000000036
:400AC00000000000000000000000000000000000000000000000000000000000000000000000000000000000000000000000000000000000000000000000000000000000F6
:0200000490006A
:0400000000004005B7
:0200000490105A
:04000000BC90ACAF55
:0200000490303A
:02000000D733F4
:0200000490402A
:4000000000000000000000000000000000000000000000000000000000000000000000000000000000000000000000000000000000000000000000000000000000000000C0
:400040000000000000000000000000000000000000000000000000000000000000000000000000000000000000000000000000000000000000000000000000000000000080
:400080000000000000000000000000000000000000000000000000000000000000000000000000000000000000000000000000000000000000000000000000000000000040
:4000C0000000000000000000000000000000000000000000000000000000000000000000000000000000000000000000000000000000000000000000000000000000000000
:0200000490501A
:0C00000000012E16106900012E22E79C62
:00000001FF