:400000000080002011000000510700005107000080B500AF024A034B1B68136000F0CAFBBC760040FA46004010B5054C237833B9044B13B10448AFF300800123237010BDA2
:400040004881FF1F00000000BC330000084B10B51BB108490848AFF300800848036803B910BD074B002BFBD0BDE81040184700BF000000004C81FF1FBC330000C880FF1F24
:400080000000000080B500AF62B601F017F901F05DFF01F04BFB00F077FD01F031FA0F4801F0AAF90E4801F093FA0E4801F082F900F082FD0C4B1B78002BFBD000F018F86F
:4000C00000F030F803469AB2084B1A8000F07EF800F046F8044B00221A70EBE71502000051020000C03300006481FF1F7C81FF1F80B500AF0A4B1B88184601F061FF01F00E
:4001000079FF03461A46064B1A80054B1B885B089BB2C3F30A039AB2014B1A8000BF80BD7E81FF1F80B500AF00214A2001F018FD002001F017FE01214A2001F07DFD002050
:4001400001F060FE03469AB2044B1A8001F0D2FD024B1B88DBB2184680BD00BF7C81FF1FB0B592B002AF134B1B68184602F09CFC0446114B1B68184602F096FC05460F4B2F
:400180001B8819460E4B1B880E4AA2FB0323DB089BB23846019300912B4622460A4902F0E9FC3B46184601F005F900BF4037BD46B0BD00BFA881FF1F7881FF1F7C81FF1FA4
:4001C0007E81FF1FCDCCCCCCD033000080B500AF0B4B1A680B4B1B68B2FBF3F3184602F0BBFA0246084B1A60074B1B680749184602F0BEFB03461A46054B1A6000BF80BDCF
:400200007081FF1F7481FF1FA881FF1F000020417881FF1F80B582B000AF00F0DDFC0346184600F017FD03467B60074B1A687B681344054A1360054B1B680133034A136098
:4002400000BF0837BD4680BD6881FF1F6C81FF1F80B500AF01F076F901F010F90A4B1B680A4A13600A4B1B680A4A1360064B00221A60074B00221A6001F0F4F8064B012286
:400280001A7000BF80BD00BF6881FF1F7081FF1F6C81FF1F7481FF1F6481FF1F80B582B000AF786039603A680021786802F059FC00BF0837BD4680BD80B584B000AFF860A3
:4002C000B9607A607A68B968F86802F03FFC00BF1037BD4680BD00BF80B483B000AF0346FB71FEE780B487B000AF7860396000233B6100237B6127E07B699B007A681344BE
:400300001B68BB60BB68FB73BB6823F0FF03BB6014E03B695B003A6813441B781A46BB68134419463B695B003A6813445B780B703B6901333B61FB7B013BFB73FB7B002B08
:40034000E7D17B6901337B617B69212BD4D900BF1C37BD4680BC704780B582B000AF454B00221A80444B50221A70444B0E221A80434B18221A70434B0E221A80424B182235
:400380001A70424B19221A80414B18221A70042240494148FFF790FF404B02221A704FF0402308221A703E4B03221A703D4B3E4A1278D2B21A703D4B08221A803C4B41F2CF
:4003C00051221A800023FB7019237B6014E0FB785B00DAB2374B1B78DBB203F00103DBB21343DBB203F00303FB704FF4F07002F0D3F87B68013B7B607B68002B02D0FB78E3
:40040000032BE4D17B68002B02D10320FFF764FF294B4FF480721A80274B07221A70274B00221A70264B48221A70234B00221A70244B02221A70244B04221A70234A234B60
:400440001B78DBB243F00F03DBB21370204A204B1B78DBB243F00103DBB213701D4A1D4B1B78DBB263F07F03DBB2137000BF0837BD4680BD804000408240004084400040B3
:4004800086400040884000408A4000408C4000408E400040200C0048004100400043004000420040A1460040080100492242004020420040254200400440004006400040A0
:4004C00008400040014000400B400040A2430040A1430040A043004080B483B000AF0E4B1B78FB710D4AFB7903F00703DBB213700B4AFB791B09DBB213700A4B01221A70B7
:40050000094B10221A70094B44221A7000BF0C37BD4680BC704700BFCF0100496E5800406F5800400D510040005B00407658004080B483B000AF0346FB71FB79012B0ED8F2
:40054000FB79094A52F82330FA79074951F822201178FA790548825C0A43D2B21A7000BF0C37BD4680BC7047043400000C34000080B483B000AF0346FB71FB79012B10D884
:40058000FB790A4A52F82330FA79084951F822201178FA790648825CD243D2B20A40D2B21A7000BF0C37BD4680BC7047043400000C34000080B586B000AF72B64F4A4F4B89
:4005C0001B78DBB243F00403DBB213700023FB7513E0FA7D13465B0013445B00484A13443B613B691A683B699B889BB219461046FFF754FEFB7D0133FB75FB7D072BE8D9EB
:400600000023FB751CE0FA7D13469B0013445B003C4A1344FB60FB681B68BB60FB685B687B60FB681A7A5B7A1B0213437B807B881A467968B868FFF73FFEFB7D0133FB75E7
:40064000FB7D022BDFD930494FF09040FFF74AFE2E4B0A221A702E4A2D4B1B78DBB243F00203DBB213702B4A2A4B1B78DBB243F00203DBB21370284A274B1B78DBB243F047
:400680004003DBB21370254A244B1B78DBB243F01003DBB21370082221492248FFF70CFE0A2221492148FFF707FE082220492148FFF702FE082220492048FFF7FDFD204A54
:4006C0001F4B1B78DBB243F00803DBB213701D4B60221A70FFF740FE1A4B80221A701A4B01221A70FFF7F8FE0E220B491748FFF7E3FD00BF1837BD4680BD00BFE8460040B7
:40070000103400004034000088000048835800400350014013500140A0430040C2430040FC0B004802510040040C0048C0510040100C0048F2510040180C004812510040F5
:40074000224300400048004004000840B043004080B500AF02F0CEF903461B680C2B00D1FEE7FEE780B584B000AF78600F4B1A687B6813441A460E4BD31A802B09DC0B4B00
:400780001B68FB60094B1A687B681344074A136007E002F0AFF902460C2313604FF0FF33FB60FB6818461037BD4680BDCC80FF1FD081FF1F80B586B000AF224B7B61224B5F
:4007C0003B61204B7B6135E03B691B68FB603B695B68BB603B699B683B6000237B600CE0FB681A68BB681A60BB680433BB60FB680433FB607B6804337B607A683B689A428F
:40080000EED13B69DB683B6000237B6008E0BB6800221A60BB680433BB607B6804337B607A683B689A42F2D13B6910333B617B69013B7B617B69002BC6D102F061F9FFF7DD
:4008400021FCFEE701000000B834000080B582B000AF184B184A1A60184A184B1B6843F40073136000237B600FE07B68032B04D8134A7B6852F8233000E0124B12497A689E
:4008800041F822307B6801337B607B682F2BECD90E4B1B78DAB20E4B1A700E4B0A4A1A60FFF788FE0C4B00221A6000BF0837BD4680BD00BF0CED00E00004FA0514ED00E00E
:4008C00000000000510700000080FF1FBC760040C480FF1F08ED00E0C080FF1F80B582B002AF414B01221A70404B00221A70102001F0BCFC102001F09FFD0721012001F0A3
:4009000025FE3B4B04221A703A4B00221A703A4B00221A70394A394B1B78DBB243F01803DBB21370364B00221A70364B00221A70354B00221A70354B0A221A70344B00221A
:400940001A70344B00221A70334B12221A70334B13221A70324B00221A70324B14221A70012300930C234FF400424FF40041032000F096FB0223009310234FF4004249F2A5
:40098000DA01002000F08CFB0323009310234FF4004249F2DA01002000F082FB0423009310234FF4004249F2DA01002000F078FB1D4A0D4B1B78DBB2013B1C499B000B443C
:4009C0009B7813701A4A084B1B78DBB2013B174931F823301380044B1B78DBB2184600F057F900BFBD4680BDD080FF1F8081FF1F96580040975800409E580040075B004011
:400A000093580040885B0040895B004080580040815800408358004088580040895800408D580040014E00400E4E00408881FF1F0C4E004080B582B000AF01F0CCFD03468D
:400A4000FB71434B1B78BB71424A424B1B78DBB243F00103DBB213703E4A3E4B1B78DBB243F01003DBB213703B4A3B4B1B78DBB243F00103DBB21370374A374B1B78DBB221
:400A800043F01003DBB21370344A344B1B78DBB243F00203DBB21370314A314B1B78DBB243F00203DBB213702E4A2E4B1B78DBB243F00303DBB21370032001F00BFD274A35
:400AC000264B1B78DBB223F00203DBB21370244A234B1B78DBB223F00203DBB21370224A214B1B78DBB243F00603DBB213701F4B7A221A701E4A1E4B1B78DBB243F001031D
:400B0000DBB213701B4A1B4B1B78DBB243F00103DBB21370184A184B1B78DBB243F00103DBB21370154A154B1B78DBB243F00103DBB21370124B02221A60124B02221A602B
:400B4000FB79184601F04BFD00BF0837BD4680BDD080FF1FAA430040BA430040F8460040F9460040915800407758004082580040A1430040B1430040A2430040B243004053
:400B800080E200E000E100E080B500AF084B1B78002B09D1074B1B78DBB2002B01D1FFF79DFE034B01221A70FFF744FF00BF80BD8281FF1F8381FF1F80B400AF054A054B6E
:400BC0001B78DBB243F00103DBB2137000BFBD4680BC7047004E004080B483B000AF174B1B78DBB203F003037B717B79012B03D8134B1B88FB8011E0114B1B78DBB2FB806F
:400C0000104B1B78DBB29BB21B029AB2FB881343FB807B79032B01D10B4B1B780B4B1B78DBB2002B02D00A4B00221A70B7F9063018460C37BD4680BC704700BF144E004000
:400C4000104E0040114E0040124E00408181FF1F8081FF1F80B485B000AF78600A4B1B687A68D31A7B607B684FF47A7202FB03F2064B1B6892FBF3F3FB81B7F90E301846D3
:400C80001437BD4680BC70478481FF1FAC81FF1F80B582B000AF0346FB71C34B00221A70FB79012B66D1C14B38221A70C04B06221A70C04B08221A70BF4B00221A70BF4BFD
:400CC00000221A70BE4B1F221A70BE4B00221A70BD4B00221A70BD4B00221A70BC4B01221A70BC4B14221A70BB4B04221A70BB4B18221A70BA4B00221A70BA4B11221A70E9
:400D0000B94B12221A70B94B00221A70B84B01221A70B84B11221A70B74B19221A70B74B97221A70442000F073FAB54B58221A70B44B00221A70B44B05221A70B34B022283
:400D40001A70B34B00221A70B24B00221A70002001F0BAF9B04B40F29B221A600121052001F0C6F90121BA2001F0A8FAAB49012001F0C4FBFB79022B66D18C4B38221A7090
:400D80008B4B04221A708B4B06221A708A4B00221A708A4B00221A70894B3F221A70894B00221A70884B00221A70884B00221A70874B01221A70874B50221A70864B27227F
:400DC0001A70864B2C221A70854B00221A70854B55221A70844B5A221A70844B05221A70834B01221A70834B11221A70824B19221A70824B97221A70442000F009FA804B54
:400E000058221A707F4B00221A707F4B05221A707E4B02221A707E4B00221A707D4B00221A70002001F050F97B4B4FF47A421A600121052001F05CF90121252001F03EFAA7
:400E40007749012001F05AFBFB79032B66D1574B38221A70564B04221A70564B06221A70554B00221A70554B00221A70544B3F221A70544B00221A70534B00221A70534BF3
:400E800000221A70524B01221A70524B50221A70514B27221A70514B2C221A70504B00221A70504B55221A704F4B5A221A704F4B05221A704E4B01221A704E4B11221A7056
:400EC0004D4B19221A704D4B97221A70442000F09FF94B4B58221A704A4B00221A704A4B05221A70494B02221A70494B00221A70484B00221A70002001F0E6F8464B4FF429
:400F00007A421A600121052001F0F2F80121252001F0D4F94349012001F0F0FAFB79042B40F0A980214B38221A70214B04221A70204B06221A70204B00221A701F4B002284
:400F40001A701F4B3F221A701E4B00221A701E4B00221A701D4B00221A701D4B01221A701C4B50221A701C4B27221A701B4B2C221A701B4B00221A701A4B55221A701A4B87
:400F80005A221A70194B05221A70194B01221A70184B11221A70184B19221A70174B97221A70442040E000BF8181FF1F004E0040024E0040034E0040044E0040054E0040E1
:400FC000064E0040084E0040094E00400A4E0040144E0040845800408558004086580040875800408A5800408B5800408C5800408E5800408F580040905800409158004079
:4010000094580040955800409A5800409B5800409C5800409D580040AC81FF1F8D12000099120000A512000000F0F2F8144B58221A70144B00221A70134B05221A70134B88
:4010400002221A70124B00221A70124B00221A70002001F039F8104B4FF47A421A600121052001F045F80121252001F027F90B49012001F043FA00BF0837BD4680BD00BF0D
:4010800094580040955800409A5800409B5800409C5800409D580040AC81FF1FB112000090B587B000AF0446084611461A462346FB710346BB800B467B801346BB7197F8C8
:4010C0002830002B00F08B8097F82830042B00F28680FB79013B092B4AD801A252F823F0091100007111000071110000091100007111000071110000231100003D110000A0
:401100007111000057110000BB790F2B04D9374B1B78DBB2FB752EE0354B1B78DBB2FB7529E0BB790F2B04D9324B1B78DBB2FB7521E0314B1B78DBB2FB751CE0BB790F2B72
:4011400004D92E4B1B78DBB2FB7514E02C4B1B78DBB2FB750FE0BB790F2B04D9294B1B78DBB2FB7507E0284B1B78DBB2FB7502E00023FB7500BFBA8897F917305B01134466
:401180003B617B883A6902FB03F3FB60FB68DB0BBB82BB790D2B12D8BA8ABB79C3F10E0342FA03F3BB8297F82830013BBA790132D1B2164A9B0013440A469A7007E097F8E9
:4011C0002830013B114A9B0013440F229A7097F82830013B0D49BA8A21F8232002E0002001F06CF900BF1C37BD4690BD180100491C010049190100491D0100491A0100490A
:401200001E0100491B0100491F0100498881FF1F80B584B000AF0346FB7101F0DCF90346FB73174A164B1B78DBB243F00303DBB21370144A134B1B78DBB243F00303DBB23A
:401240001370114AFB791370032001F043F90C4A0B4B1B78DBB223F00303DBB21370094A084B1B78DBB223F00303DBB21370FB7B184601F0B4F900BF1037BD4680BD00BFEE
:40128000F8460040F94600409258004080B400AF00BFBD4680BC704780B400AF00BFBD4680BC704780B400AF00BFBD4680BC704780B400AF00BFBD4680BC704780B500AFC3
:4012C000064B1B78002B04D100F00AF8034B01221A7000F025F800BF80BD00BF9881FF1F80B400AF094B72221A70094B20221A70084B06221A70084B47221A70074B0022EA
:401300001A7000BFBD4680BC704700BF8A6500408A64004028640040386400408B64004080B582B000AF01F056F90346FB71114A104B1B78DBB243F02003DBB213700E4ADC
:401340000D4B1B78DBB243F01003DBB213700B4A0A4B1B78DBB243F01003DBB2137001F093F8FB79184601F03AF900BF0837BD4680BD00BF9A6500409A6400409B64004054
:4013800080B483B000AF0346FB7100BF074B1B78DBB203F00403002BF8D1054AFB79137000BF0C37BD4680BC704700BF6B6400404964004080B584B000AF78600023FB81BB
:4013C0000C4B1B78002B10D009E0FB897A6813441B781846FFF7D4FFFB890133FB81FB897A6813441B78002BEFD100BF1037BD4680BD00BF9881FF1F80B582B000AF7860FF
:4014000000F03CF8786800F009F8072000F018F800F028F800BF0837BD4680BD80B485B000AF7860054B1B68FB60FB68B4337A681A6000BF1437BD4680BC704708ED00E0A9
:4014400080B483B000AF0346FB71054AFB795B01DBB2137000BF0C37BD4680BC704700BF1DE400E080B400AF034B4FF000521A6000BFBD4680BC704700E100E080B400AF45
:40148000034B4FF000521A6000BFBD4680BC704780E100E080B582B000AF40F2E73000F05DF840F2E73000F075F801F094F80346FB710A4A094B1B78DBB243F01003DBB2C6
:4014C0001370FB79184601F08AF800F073F8012000F028F800BF0837BD4680BD9764004080B400AF054A054B1B78DBB263F07F03DBB2137000BFBD4680BC704776640040C9
:4015000080B500AF064B1B78002B04D1FFF7C2FF034B01221A70FFF7E3FF00BF80BD00BF9A81FF1F80B483B000AF0346FB71044AFB79137000BF0C37BD4680BC704700BF9E
:401540008764004080B400AF034B1B78DBB21846BD4680BC704700BF6764004080B483B000AF0346FB80044AFB88138000BF0C37BD4680BC704700BF4C68004080B400AF05
:40158000034B1B889BB21846BD4680BC704700BF8C68004080B483B000AF0346FB80044AFB88138000BF0C37BD4680BC704700BF0C68004080B500AF01E0FFF7DFFFFFF76E
:4015C000C1FF034603F00803002BF6D100BF80BD80B582B000AF786000F03CF8786800F009F8072000F018F800F028F800BF0837BD4680BD80B485B000AF7860054B1B68DB
:40160000FB60FB6840337A681A6000BF1437BD4680BC704708ED00E080B483B000AF0346FB71054AFB795B01DBB2137000BF0C37BD4680BC704700BF00E400E080B400AFF0
:40164000034B01221A6000BFBD4680BC704700BF00E100E080B400AF034B01221A6000BFBD4680BC704700BF80E100E080B582B000AF1B4B00221A701A4B01221A7000F09D
:40168000AAFF0346FB71184A174B1B78DBB243F01003DBB21370FB79184600F0A0FF134B0F221A70124B08221A70124B04221A600721022000F04AFF0F49022000F01EFF00
:4016C0000E4B10221A700E4B00221A700D4B00221A700D4B00221A7000BF0837BD4680BD7765004087650040976500402B6500403B65004080E100E059170000B081FF1F56
:40170000B681FF1FB881FF1FB481FF1F80B400AF054A054B1B78DBB243F00203DBB2137000BFBD4680BC70477765004080B500AF074B1B78002B04D1FFF798FF044B012227
:401740001A70FFF7E3FF034B04221A6000BF80BD9B81FF1F00E100E080B582B000AFA64B1B78FB71A54B1B78DBB203F04003DBB2002B00F0CD81FB7903F00103002B00F05A
:40178000A4819E4B1B78DBB2453B052B00F2998101A252F823F000BFB1170000F7180000C31A0000C31A0000B11700002D1A0000FB7923F02003FB71FB7903F00A03DBB2C9
:4017C000082B54D18D4B1B78DBB2452B42D18C4B1B78DBB2002B15D08A4A8B4B1B681B78DBB21370894B06221A70894BFF221A70884B00221A70884B01221A707F4B462209
:401800001A7062E1854B1B78DBB203F00203002B0ED0834B1B78DBB243F00A03DAB2804B1A70764B60221A707E4B04221A604CE17D4A7D4B1B78DBB243F02003DBB2137063
:40184000724B52221A70724BFF221A70714B00221A703AE16D4B02221A706D4BFF221A706C4B00221A70654B4A221A702DE1FB7903F00A03DBB20A2B39D1694B1B78DBB2CE
:4018800063F05F03DAB2664B1A70644B1B78DBB203F00203002B18D0584B1B78DBB203F00803002B01D0092300E00A23DAB25C4B1B78DBB21343DAB2594B1A704F4B60225D
:4018C0001A70584B04221A60FFE0574A564B1B78DBB243F02003DBB213704C4B52221A704B4BFF221A704B4B00221A70EDE0002000F0E4FDE9E0FB7903F00203002B4AD123
:40190000454B1B78DAB23E4B1B78DBB29A421AD23C4A3D4B1B6840490978C9B20B441B78DBB21370394B06221A70394BFF221A70384B00221A70384B1B78DBB20133DAB288
:40194000354B1A70C1E0354B1B78DBB203F00203002B0ED0324B1B78DBB243F00A03DAB22F4B1A70254B60221A702E4B04221A60ABE02D4A2C4B1B78DBB243F02003DBB29D
:401980001370224B52221A70214BFF221A70214B00221A7099E0214B1B78DBB203F00203002B0ED01E4B1B78DBB263F06503DAB21B4B1A70114B60221A701A4B04221A60D7
:4019C00083E0194A184B1B78DBB243F02003DBB213700E4B52221A700D4BFF221A700D4B00221A700E4B1B78DBB263F06F03DAB20B4B1A7069E000BF67650040B081FF1FCD
:401A0000B781FF1F07650040BC81FF1F776500401765004057650040B481FF1FB581FF1FB681FF1F80E100E087650040404B1B68404A1278D2B213443F4A1278D2B21A70EE
:401A40003C4B1B78DBB20133DAB23A4B1A70394B1B78DAB2394B1B78DBB29A4209D2384B02221A70374BFF221A70374B00221A702BE0364B1B78DBB203F00203002B0ED0B9
:401A8000334B1B78DBB243F00903DAB2304B1A70304B60221A70304B04221A6015E02F4A2E4B1B78DBB243F02003DBB21370244B12221A70234BFF221A70234B00221A7049
:401AC00003E0002000F0FAFC00BFFB7903F02003002B28D01F4B1B78DBB203F00803002B01D0012300E00223DAB2194B1B78DBB21343DAB2164B1A70184A184B1B78DBB222
:401B000023F02003DBB21370124B10221A700AE0104B1B78DBB203F01003DBB2002B02D10C4B10221A7000BF0837BD4680BD00BFC081FF1FB881FF1F07650040C481FF1F7B
:401B4000776500401765004057650040B581FF1FB681FF1FB081FF1F80E100E08765004080B485B000AF03460A46FB711346BB710223FB73294B1B78DBB2102B47D1284B9D
:401B80001B78DBB203F01003002B3ED1254B04221A60FB795B00FB71BB79002B07D0FB7943F00103FB711D4B49221A7002E01B4B45221A701C4AFB7913701C4B82221A70A5
:401BC0001B4BFF221A701B4B00221A7000BF184B1B78DBB2002BFAD100BF114B1B78DBB203F00103002BF8D00D4B1B78DBB203F00A03DBB20A2B05D1084B10221A70032320
:401C0000FB7304E00023FB7301E00123FB73FB7B18461437BD4680BC704700BFB081FF1F6765004080E100E00765004077650040176500405765004080B485B000AF0346FD
:401C40000A46FB711346BB710223FB73234B1B78DBB203F00403002B3AD0FB795B00FB71BB79002B07D0FB7943F00103FB711C4B49221A7002E01A4B45221A70194AFB79E0
:401C80001370194B32221A70184BFF221A70184B00221A7000BF154B1B78DBB2002BFAD100BF0E4B1B78DBB203F00103002BF8D00A4B1B78DBB203F00A03DBB20A2B05D1DE
:401CC000074B10221A700323FB7301E00023FB73FB7B18461437BD4680BC704767650040B081FF1F0765004077650040176500405765004080B483B000AF0223FB71144BDA
:401D00001B78DBB203F00403002B1BD0114B52221A70114BFF221A70104B00221A7000BF0D4B1B78DBB2002BFAD10D4B10221A7000BF074B1B78DBB203F02103002BF8D08F
:401D40000023FB71FB7918460C37BD4680BC704767650040776500401765004057650040B081FF1F80B485B000AF0346FB710223FB731E4B1B78DBB203F00403002B2ED08E
:401D80001B4AFB7913701B4B06221A701A4BFF221A701A4B00221A7000BF174B1B78DBB2002BFAD1164B46221A7000BF0F4B1B78DBB203F00103002BF8D00C4B1B78DBB26A
:401DC00003F00203002B05D10D4B60221A700023FB7304E00A4B60221A700323FB73FB7B18461437BD4680BC704700BF6765004007650040776500401765004057650040BC
:401E0000B081FF1F80B485B000AF0346FB710023FB73224B1B78DBB203F00403002B37D01F4B1B78DBB2492B11D11E4B02221A701D4BFF221A701D4B00221A7000BF1A4BFA
:401E40001B78DBB2002BFAD1154B4A221A7000BF124B1B78DBB203F00103002BF8D0144B1B78FB73FB79002B0FD00E4B02221A700D4BFF221A700D4B00221A7000BF0A4BD0
:401E80001B78DBB2002BFAD102E0054B60221A70FB7B18461437BD4680BC704767650040B081FF1F7765004017650040576500400765004080B500AF084B1F221A7000F0EC
:401EC000A7F800F061F800F06DF8054B00221A70044B00221A7000BF80BD00BF88640040846400408865004080B582B000AF00F072FB0346FB71124A114B1B78DBB243F03F
:401F00002003DBB213700F4A0E4B1B78DBB243F01003DBB213700C4A0B4B1B78DBB243F01003DBB21370FB79184600F058FB00F01FF800F023F800BF0837BD4680BD00BF00
:401F400098640040946400409865004080B500AF064B1B78002B04D1FFF7ACFF034B01221A70FFF7C1FF00BF80BD00BF9C81FF1F80B400AF00BFBD4680BC704780B400AF25
:401F800000BFBD4680BC704780B483B000AF044B1B78FB71FB7918460C37BD4680BC70476464004080B483B000AF044B1B78FB71FB7918460C37BD4680BC70476865004079
:401FC00080B483B000AF0346FB8000BF074B1B78DBB203F00403002BF8D0054AFB88138000BF0C37BD4680BC704700BF646400404A64004080B483B000AF044B1B88FB8054
:40200000FB8818460C37BD4680BC70475A64004080B582B000AF01E01A4B1B881A4B1B78DBB203F02003002BF6D100F0D4FA0346FB71164A154B1B78DBB243F00103DBB2E5
:402040001370124A114B1B78DBB223F00103DBB213700F4A0E4B1B78DBB243F00103DBB213700B4A0A4B1B78DBB223F00103DBB21370FB79184600F0B2FA00BF0837BD4665
:4020800080BD00BF5A640040686500409A6400409B64004080B582B000AF0023FB7106E0FB791846FEF764FAFB790133FB71FB79012BF5D9034BFF221A7000BF0837BD4670
:4020C00080BD00BFD180FF1F80B582B000AF0346FB71FFF7DFFFFB791846FEF729FA034AFB79137000BF0837BD4680BDD180FF1F80B584B000AF03460A46FB8013467B718A
:4021000000F0CEF80346FB7300F0A4F80346BB81FA88BB899A4200F08880464B1B78DBB203F00103FB72FB7B002B20D1BB89002B02D0FB88002B1AD1BB89002B0BD13E4A33
:40214000FB8813803D4A3D4B1B78DBB223F04003DBB2137069E0394A384B1B78DBB243F04003DBB21370344AFB8813805DE0FB7A002B33D0324B00221A70324B01221A70F8
:40218000314B00221A70314A304B1B78DBB203F07F03DBB21370294B1B78DBB203F00803002B02D0FB88002B18D1294ABB891380234B07221A7000BF214B1B78DBB203F08D
:4021C0000103002BF8D11B4A1A4B1B78DBB223F00103DBB213701A4B00221A70154B1B78DBB203F00103002B13D0194AFB881380134A7B79002B01D0032300E001231370CD
:4022000000BF0F4B1B78DBB203F00103002BF8D10BE0094AFB8813800649064B1B78DAB2FB7A1343DBB20B70FFE700BF1037BD4680BD00BFA2430040804000408240004082
:40224000014000401040004014400040084000400240004080B400AF034B1B889BB21846BD4680BC704700BF8040004080B483B000AF0346FB710949084B1B78DBB25AB2DF
:4022800097F9073023F007035BB213435BB2DBB20B7000BF0C37BD4680BC70478240004080B400AF044B1B78DBB203F00703DBB21846BD4680BC70478240004080B584B02D
:4022C00000AF03460A46FB8013467B7100F0CEF80346FB7300F0A4F80346BB81FA88BB899A4200F08880464B1B78DBB203F00103FB72FB7B002B20D1BB89002B02D0FB8853
:40230000002B1AD1BB89002B0BD13E4AFB8813803D4A3D4B1B78DBB223F04003DBB2137069E0394A384B1B78DBB243F04003DBB21370344AFB8813805DE0FB7A002B33D0A0
:40234000324B00221A70324B01221A70314B00221A70314A304B1B78DBB203F07F03DBB21370294B1B78DBB203F00803002B02D0FB88002B18D1294ABB891380234B072240
:402380001A7000BF214B1B78DBB203F00103002BF8D11B4A1A4B1B78DBB223F00103DBB213701A4B00221A70154B1B78DBB203F00103002B13D0194AFB881380134A7B79EC
:4023C000002B01D0032300E00123137000BF0F4B1B78DBB203F00103002BF8D10BE0094AFB8813800649064B1B78DAB2FB7A1343DBB20B70FFE700BF1037BD4680BD00BF3F
:40240000A14300400041004002410040014000401440004010400040084000400240004080B400AF034B1B889BB21846BD4680BC704700BF0041004080B483B000AF0346B1
:40244000FB710949084B1B78DBB25AB297F9073023F007035BB213435BB2DBB20B7000BF0C37BD4680BC70470241004080B400AF044B1B78DBB203F00703DBB21846BD460B
:4024800080BC70470241004080B400AF094A094B1B78DBB243F00803DBB21370064A064B1B78DBB243F00803DBB2137000BFBD4680BC7047A2430040B243004080B483B029
:4024C00000AF0346FB7101BE00BF0C37BD4680BC704700BF80B582B000AF0346FB80FB88054A127802FB03F3184600F055F800BF0837BD4680BD00BFDC80FF1F80B584B05E
:4025000000AF03463960FB710F4B1B68FB60FB791F2B02D90020FFF7D1FFFB7903F01F0310339B00FA6813441B68BB60FB7903F01F0310339B00FA6813443A681A60BB68CA
:4025400018461037BD4680BD08ED00E080B582B000AF03460A46FB711346BB71BB79072B02D90020FFF7AAFFFB791F2B02D90020FFF7A4FFFB7903F01F0303F1604303F597
:402580006443BA795201D2B21A7000BF0837BD4680BD00BF00000000142816D902B4012114381049097811F0C001890904B40E4A515C04BC00BF00BF00BF8841FDD500BF52
:4025C00000BF02BC704700BF00BF70F10400FCD570470B050709EFF3108072B6704780F31088704700480040D225000080F0004002E000BF81F0004142001FBF5FEA4103DA
:4026000092EA030F7FEA226C7FEA236C6AD04FEA1262D2EB1363C1BFD218414048404140B8BF5B42192B88BF704710F0004F40F4000020F07F4018BF404211F0004F41F489
:40264000000121F07F4118BF494292EA030F3FD0A2F1010241FA03FC10EB0C00C3F1200301FA03F100F0004302D5494260EB4000B0F5000F13D3B0F1807F06D340084FEA38
:40268000310102F10102FE2A51D2B1F1004F40EBC25008BF20F0010040EA03007047490040EB000010F4000FA2F10102EDD1B0FA80FCACF1080CB2EB0C0200FA0CF0AABF01
:4026C00000EBC25052421843BCBFD0401843704792F0000F81F4000106BF80F400000132013BB5E74FEA41037FEA226C18BF7FEA236C21D092EA030F04D092F0000F08BF18
:402700000846704790EA010F1CBF0020704712F07F4F04D1400028BF40F00040704712F100723CBF00F50000704700F0004343F0FE4040F4000070477FEA226216BF0846AA
:402740007FEA23630146420206BF5FEA412390EA010F40F4800070474FF0000304E000BF10F0004348BF40425FEA000C08BF704743F0964301464FF000001CE050EA010229
:4027800008BF70474FF000030AE000BF50EA010208BF704711F0004302D5404261EB41015FEA010C02BF84460146002043F0B64308BFA3F18053A3F50003BCFA8CF2083A17
:4027C000A3EBC25310DB01FA02FC634400FA02FCC2F12002BCF1004F20FA02F243EB020008BF20F00100704702F1200201FA02FCC2F1200250EA4C0021FA02F243EB02006D
:4028000008BF20EADC7070474FF0FF0C1CEAD0521EBF1CEAD15392EA0C0F93EA0C0F6FD01A4480EA010C400218BF5FEA41211ED04FF0006343EA501043EA5111A0FB0131CB
:402840000CF00040B1F5000F3EBF490041EAD3715B0040EA010062F17F02FD2A1DD8B3F1004F40EBC25008BF20F00100704790F0000F0CF0004C08BF49024CEA502040EAC4
:4028800051207F3AC2BFD2F1FF0340EAC250704740F400004FF00003013A5DDC12F1190FDCBF00F000407047C2F10002410021FA02F1C2F1200200FA02FC5FEA310040F1A2
:4028C000000053EA4C0308BF20EADC70704792F0000F00F0004C02BF400010F4000F013AF9D040EA0C0093F0000F01F0004C02BF490011F4000F013BF9D041EA0C018FE7BD
:402900000CEAD15392EA0C0F18BF93EA0C0F0AD030F0004C18BF31F0004CD8D180EA010000F00040704790F0000F17BF90F0004F084691F0000F91F0004F14D092EA0C0F95
:4029400001D142020FD193EA0C0F03D14B0218BF084608D180EA010000F0004040F0FE4040F40000704740F0FE4040F4400070474FF0FF0C1CEAD0521EBF1CEAD15392EA28
:402980000C0F93EA0C0F69D0A2EB030280EA010C49024FEA402037D04FF0805343EA111143EA10130CF000408B4238BF5B0042F17D024FF4000C8B4224BF5B1A40EA0C00CF
:4029C000B3EB510F24BFA3EB510340EA5C00B3EB910F24BFA3EB910340EA9C00B3EBD10F24BFA3EBD10340EADC001B0118BF5FEA1C1CE0D1FD2A3FF650AF8B4240EBC25032
:402A000008BF20F0010070470CF0004C4CEA50207F32C2BFD2F1FF0340EAC250704740F400004FF00003013A37E792F0000F00F0004C02BF400010F4000F013AF9D040EA51
:402A40000C0093F0000F01F0004C02BF490011F4000F013BF9D041EA0C0195E70CEAD15392EA0C0F08D142027FF47DAF93EA0C0F7FF470AF084676E793EA0C0F04D14B02A8
:402A80003FF44CAF08466EE730F0004C18BF31F0004CCAD130F000427FF45CAF31F000437FF43CAF5FE700BF4FEA4002B2F1FE4F0FD34FF09E03B3EB12620DD94FEA0023D2
:402AC00043F0004310F0004F23FA02F018BF404270474FF00000704712F1610F01D1420205D110F0004008BF6FF0004070474FF000007047014B1868704700BF4481FF1F25
:402B00000E4B70B51E460E4C0025E41AA410A54204D056F8253098470135F8E700F0BAFC084B094C1E46E41AA4100025A54204D056F8253098470135F8E770BDA034000054
:402B4000A0340000A0340000A834000010B5431E0A44914204D011F8014B03F8014FF8E710BD03460244934202D003F8011BFAE7704700000EB400B54FF402719CB0ADF867
:402B800014106FF00041049107914FF6FF711DAB02900690084853F8042BADF81610006802A9019300F064F8029B00221A701CB05DF804EB03B070474481FF1F2DE9F04704
:402BC0008E6882469E420C46914698463ED88A8912F4906F3AD02568096902236F1A656905EB450595FBF3F57B1C43449D4238BF1D4653050FD5294600F040FB064698B109
:402C00003A462169FFF7A2FFA38923F4906343F08003A38113E02A4600F08EFB064670B92169504600F0DEFA0C23CAF80030A3894FF0FF3043F04003A381BDE8F0872661B2
:402C40003E44266046466561ED1BA560464528BF464649463246206800F0A8FAA36800209B1BA36023681E442660BDE8F08700002DE9F04F9DB003938B8980461C060D46D4
:402C800016460DD50B695BB9402100F0F7FA2860286118B90C23C8F80030CDE040236B610023099320238DF82930DFF89CB130238DF82A3037463C4614F8013B1BB9B7EB3C
:402CC000060910D003E0252BF9D02746F3E74B46324629464046FFF771FF013000F0A780099B4B4409933B78002B00F0A08000234FF0FF3204930793059206938DF853303D
:402D00001A930126052221784E4800F041FA671C049B38B14B4A3C46801A06FA00F018430490EFE7D90644BF20228DF853201A0744BF2B228DF8532022782A2A03D0079AE6
:402D400000210A200BE0039A111D12680391002A10DA524243F00200079204900BE027463B780134303B092B03D800FB02320121F5E701B107923B782E2B1ED17B782A2BC5
:402D80000AD1039B02371A1D1B680392002BB8BF4FF0FF33059310E0002319460593781C0A2407463A780130303A092A03D804FB01210123F5E703B1059103223978224848
:402DC00000F0E6F940B14023CBEB000003FA00F0049B013718430490397806221B487E1C8DF8281000F0D4F988B1194B33B9039B073323F007030833039314E003AB009373
:402E00002A46144B04A94046AFF3008007E003AB00932A460F4B04A9404600F093F8B0F1FF3F824603D0099B5344099342E7AB895B0601D4099801E04FF0FF301DB0BDE888
:402E4000F08F00BF60340000663400006A34000000000000BD2B00002DE9F04791461F460A698B6806469342B8BF1346C9F8003091F843200C46DDF8208012B10133C9F824
:402E800000302368990642BFD9F800300233C9F80030256815F0060510D104F1190A07E00123524639463046C04701301AD00135E368D9F800209B1A9D42F1DB94F843306F
:402EC0002268003318BF012392060FD5E118302081F843005A1C94F845102244023382F8431003E04FF0FF30BDE8F08704F1430239463046C0470130F4D02268D9F8005097
:402F0000E36802F00602042A08BF5D1B2269A3680CBF25EAE57500259342C4BF9B1AED184FF000091A344D4509D00123224639463046C0470130D5D009F10109F3E7002081
:402F4000BDE8F0872DE9F04317460A7E85B06E2A984606460C460C9B01F1430E00F0AE8011D8632A22D009D8002A00F0BB80582A40F0CA8081F84520834955E0642A1ED0C1
:402F8000692A1CD0C0E0732A00F0B08009D86F2A2ED0702A40F0B8800A6842F020020A603EE0752A24D0782A3AD0ADE01A6801F14205111D1960136884F84230A8E02168C5
:402FC0001A6811F0800F02D0111D196008E011F0400F02F10401196002D0B2F9003000E01368002B3CDA2D225B4284F8432037E021681A6811F0800F02D0111D196007E077
:4030000011F0400F02F10401196001D0138800E01368227E5C496F2A14BF0A2208221BE078225A4984F845202268186812F0800F00F104051D6003D1550601D5038800E066
:403040000368D00744BF42F0200222601BB9226822F0200222601022002084F8430001E049490A226568002DA56008DB206820F0040020602BB9002D7DD175460CE0002B42
:4030800079D07546B3FBF2F002FB1033CB5C05F8013D03460028F5D1082A0BD12368DA0708D5236962689A42DEBF302305F8013C05F1FF35C5EB0E0323612EE008681A6881
:4030C00010F0800F496903D0101D1860136808E010F0400F02F104001860136801D0198000E0196000232361754616E01A68111D1960156800216268284600F049F808B177
:40310000401B6060636804E004F1420584F8422001232361002384F84330CDF800803B4603AA21463046FFF797FE013002D14FF0FF3026E023692A4639463046C047013075
:40314000F5D023689B0710D5002504F1190907E001234A4639463046C0470130E7D00135E368039A9B1A9D42F2DBE068039B9842B8BF184605E00B7804F1420584F8423017
:403180008AE705B0BDE8F083713400008234000010B5C9B202449042034605D01C7801308C42F8D1184610BD002010BD884210B501EB020301D8421E0BE09842FBD28118A8
:4031C000D21AD34204D013F8014D01F8014DF8E710BD994204D011F8014B02F8014FF8E710BD000038B50546002944D051F8043C0C1F002BB8BFE41800F0D4F81E4A13684E
:40320000114613B96360146030E0A3420DD92268A018834201BF18685B681218226063600C6023E0A24203D813465A68002AF9D118681918A1420BD1216801445818824231
:40324000196013D110685268014419605A600DE002D90C232B6009E021686018824201BF106852680918216062605C602846BDE8384000F098B838BDA481FF1F70B5CD1CF4
:4032800025F0030508350C2D38BF0C25002D064601DBA94202D90C23336046E000F082F8234B1C681A462146A1B10B685B1B0ED40B2B03D90B60CC18CD501EE08C420BBFFC
:4032C00063684B681360636018BF0C4615E00C464968E9E7174C23681BB9304600F052F820602946304600F04DF8431C18D0C41C24F00304A0420DD12560304600F053F8E5
:4033000004F10B00231D20F00700C31A0ED05A42E25070BD211A304600F034F80130EBD10C233360304600F03EF8002070BD00BFA481FF1FA081FF1FF8B5074615460E4631
:4033400021B91146BDE8F840FFF798BF1AB9FFF749FF2846F8BD00F027F885420ED929463846FFF78BFF044650B131462A46FFF7EDFB31463846FFF735FF01E03046F8BD59
:403380002046F8BD38B5064C0023054608462360FDF7E8F9431C02D1236803B12B6038BDC881FF1F7047704751F8040C0028BEBF091851F8043CC018043870470000000066
:4033C000434F4D20506F7274204F70656E0D0A007B2022414443223A202564202C20224C4D3335223A2025642C202254433734223A2025642C2022535049223A202564204E
:403400007D0D0A00035B0040244300404000000020510040500000000140800600070140000900140140800200170140000500400140000A004C014000020050014020005B
:4034400060520040F40A0048060080060140FC0A00488000801601407C0B004880004300232D302B2000686C4C0065666745464700303132333435363738394142434445C5
:403480004600303132333435363738396162636465660000F8B500BFF8BC08BC9E4670474D0000004D080000F8B500BFF8BC08BC9E46704729000000C8340000C880FF1F39
:4034C000800000008800000000000000D081FF1F01FF000000366E01C05D0000180000000000E02E000000000000000000000000000000000000000000000000000000006D
:40350000000000005E3400000000000000000000000000000000000000000000000000000000000000000000000000000000000000000000000000000000000000000000F9
:4035400000000000E480FF1F0000000000000000000000000000000000000000000000000000000000000000000000000000000000000000000000000000000000000000C9
:40358000000000000000000000000000000000000000000000000000000000000000000000000000000000000000000000000000000000000000000000000000000000000B
:4035C00000000000000000000000000000000000000000000000000000000000000000000000000000000000000000000000000000000000000000000000000000000000CB
:40360000000000000000000000000000000000000000000000000000000000000000000000000000000000000000000000000000000000000000000000000000000000008A
:40364000000000000000000000000000000000000000000000000000000000000000000000000000000000000000000000000000000000000000000000000000000000004A
:020000040003F7
:0200000480007A
:400000000152004004640040046500404D0401403905014027060140520701405F080140590901406C0A01403F0B0140020D0140571401404E1501400D1601405517014085
:400040006618014052190140591A0140561B01400340014002410140044201400C430140044401400345014003460140054701400B48014013490140024C01400A4D01400F
:400080000A500140025101407C01870D881F8A388B0F27042B0F3B088A72005602090407063808010C8410801204140A1610188420842404250128602C042E803008327F4F
:4000C00034803501360238083E513F105409580459045B045C015D105F018082810485188723881889298B568C9C8D048E0390029218930494C195019638970698189970F4
:400100009A029C1A9D279F48A01AA433A504A644A904AC18AE02B20FB378B413B507B6E0B908BA88BB20D608D804D904DB04DC11DD90DF01001802120341058107080802DB
:4001400009020A100B0C0D020E100F05100411821221130116111701181019401A481C081D101E121F082004262027282B102C202F043402358037683C083D823E105902A1
:400180005A405B145D406140670281018314842486028D02C0DFC2FEC4BFCA62CCF0CEF0D61FD818E20F021008020A0D13011405160A1C091E0622102403260C320F35018E
:4001C00036103A083E40404549FF4AFF4BFF4F0150185280580459045A0B5B085C215D995F016040624064406540668068806A806C806E80000401020204030204100680F2
:4002000009880A040B800E1210A0111012011502161018201A081C101D401E2023202704285029022A202B0230A0310A33403402388C39313A0141014680480249054E029D
:400240005101520259455C085E0463807402768078017B807F8183408704880891409210930297089A10A201A541A940AB30B102B204B308B404B510B601B740C05FC2AF56
:40028000C43FCA0FCC8FCE0FD081D218D60BD801DE91E410E608EE01001B011F041B050F08040A680B140C1A0D010E0110041110121A130B1640170B181B1B011D031E0122
:4002C0002004210822702302241B250129022B092C222D032E04301E32603401351F3A023E104003454049FF4A074BFF4C404D204EF04F05500856025724580459045A041B
:400300005B045C215D135F01604061A8624063208010842086038C108E0C940996109C1C9E02A414A80CAA11B220B41FBE04C051C106C50BC6E0C70CC819C9FFCAFFCBFFCA
:40034000CEF0CF44D00CD804DA04DC03DD03DF01E6C0EA40EB02000401820608075109800A200D120E100F02102814801602170418041B041D021E101F1025102708280189
:400380002B012E852F083508369037023C023D283F4043804508482849904D0252245640578064086E026F75744082108720884089108A109108922093049402950496C22D
:4003C0009708988099909A0A9D039E449F04A188A301A444A624A802AA20AF40B020B101B208B302B480B520B602B708C0FDC2F5C4B6CAF0CCF0CEF0D048D20CD820E08190
:40040000E410E8F0EC40EE020301044007010C130E0C1040160818131A041C0A1E141F02202022052302244028032A04300F323034403501370238083A023F50404641017B
:400440004230440549FF4AFF4BFF4C024E704F0850045418580459045A045B045C035D315F0162C0644065016610671168C069016B116C406D016E406F0182028A808CB8CE
:400480008E4598B89A439C569EA1A2A9AA46B080B218B407B663B808BAA0BE05C046C101C230C405C5DFC6B0C7CEC83BC9FFCAFFCBFFCC23CEF0CF08D004D401D804DA04AE
:4004C000DB04DC03DD31DF01E2C0E440E501E610E711E8C0E901EB11EC40ED01EE40EF010008018004800582060409800A640D800E04111412441640171018801A201B20B7
:400500001C401D981E042004228029013250331038023B0840204101420244204602470249204B404D204F46540856215A025C425D105F086004628079087B208008820177
:40054000844086208F04A604C0D5C2CFC45ECA01CC08CE03D0DBD23CD6F1D80CE6108204E404001302040708080109200A0E0B410C010D100E081210130F14171520174259
:40058000190F1C201F042012220523082417250F278028162A012B0F2D103180320F33703430370F382039083A083E103F44580459045C225F0180018206860B870B880103
:4005C0008A0A8B0B8F0391039318940A9501960197069A0B9B209C019E049F80A102A20BA341A420A650A70BA820A903AA40AD01AF14B007B138B210B307B408B580B66048
:40060000B740BA02BB0ABE10D804D904DC22DF01001003420505070408040A010BA00D200E200F0210401214148815021708181019281C041D051E012145220125A1260AB4
:400640002750284829042A402B402F963014320133403480360A372039A03A143B183D043F90810185208788881889048A408D40912093809404950898449A049B249C1035
:400680009D089F50A210A303A580A902AA04AEA0AF40B108B201B701C07BC2EDC47ECAFFCCFFCE7EE280E403E808EA210001170126013001350138025608580459045B04C8
:4006C0005C225D905F010040020803610680080409020A01104012221708184819801A011B201F032110222123012610284429042B0332253340370438A839024002418706
:4007000049044A08534059885B115D406004638164016A046B087060714872487A027B0282408440860889508A088C048F40902091409208948895209604978098049B24FD
:400740009C539E249F40A420A50AA702AC14ADC1B210B501C01FC20DC42DCA0FCC4FCE0FD00AD204D61FD81DE004E208E648EA0A00010222030404410602070208880A050C
:400780000B010D0413B5144515A9160A1754184619A51B4A1C401D021E02214D23922441251A2604276029CC2A102B132C0F2DFF321F33FF36E038A03E503F045440580418
:4007C00059045B045C025D105F018110820183648573882A89738A548CFF9446954296A997199C409E13A080A256A40EA521A630A79AA833AA0CB170B2FFB303B580B70C23
:40080000BF40C063C102C204C401C5C0C70EC812C9FFCAFFCBFFCC62CDA0CEF0CF41D00CD804D904DA04DC32DD03DF01E640E702E910EA30EB10ED10EE10EF120140024073
:400840000308050806D80A110C200E231024110813021602171819081A101E281F482001212122062310271028202C202D402E113204340C3690374A39163E243F42408580
:400880004104430449014A08530458805A8064016724822083048610874088208B418F40910893249402950496C7974898019B089D099E809F02A304A405A504A684A70820
:4008C000AF09B008B601C07BC2E5C4EECAF2CCF2CEF7D00FD204D870E0B0E424E880EA10047F050C09820A030C5C0D410E2211C3141817F319FF1A041C5C1D081E212010A9
:40090000211C23E3240825F3270C286729042A182C042D0F2FF0301F31C03240330F352C3620371C38803A223B283E0456025712580459045B045C335D305F01821484C08E
:4009400086208C048E08960898109A019CC0A00FA618A810AA02ACBFB23FB480B640B8A8BE40C015C550C620C80AC9FFCAFFCBFFCC42CDA0CE70D008D110D804DA04DC02B2
:40098000DD02DF01E148E240E348E480E548E680E74800440304076209680C200E2110801140120C1308140815011612184619051B201D801F1422492304280129112A043E
:4009C000308032023324380839403B1045804D014F4054105904680469146A407084711873088201834084018540874488108A098B168C208D408F2093109406951496C23D
:400A000098089A129B049C209E089F02A020A120A212A404A609AA10AE40B001B206B540B602C0B7C2E7C4FFCA0FCC0FCE0ED010D210D602E2A0E410E680E840EC2033121C
:400A40003780CC709F90A70251089F90A702D4201208138083108D109D029F90A702A90AC440E220EA80EC2013027F80C408DE0183809B02A78045089B02D00180088D08A5
:400A8000A508AF02E4080210251029028F029D02A208A510A702C010C820CA40124014403608740178808440864088019880A208AE10B080C430CC80DC80DE20E010E410EE
:400AC000E8408301A008128070087F018E809302A008C408DC01DE04E202000E01010A060B010C0E100E11011A041B011C0E003B070C000081A8000043000000225D05A2A4
:400B000003000008103D07C2FF000002039200600101000001010000C040071D080407E0010000FF050D78003AE20400000080FF7F0000000800000000001004540000006B
:400B400000EC002023FFFFFF00830301180000000100040004040B0B02990001400040004040800080008000800080000000000000000000000000000000000005B220088C
:400B8000000640007101021E01220E000401210025000040009C002200AA101004A201182504000000980006713F08000F1F00004060308000820200000000406300000036
:400BC000010B0D0005FF7FFF42A070000C00F60020000400040404042222000100094009300900000000000000000000000000000000000000000000000000000000000002
:400C000000000100830050A8AB00AB00000000000100000000000000000B0B0000000000BB00180100000000000000000000000000000000000000000000000000000000F7
:400C40000000000000000000000000000000000000000000000000000000000000000000000000000000000000000000000000000000000000000000000000000000000074
:400C80000000000000000000000000000000000000000000000000000000000000000000000000000000000000000000000000000000000000000000000000000000000034
:400CC00000000000000000000000000000000000000000000000000000000000000000000000000000000000000000000000000000000000000000000000000000000000F4
:400D000000000000000000000000000000000000000000000000000000000000000000000000000000000000000000000000000000000000000000000000000000000000B3
:0200000490006A
:0400000000004005B7
:0200000490105A
:04000000BC90ACAF55
:0200000490303A
:020000000305F6
:0200000490402A
:4000000000000000000000000000000000000000000000000000000000000000000000000000000000000000000000000000000000000000000000000000000000000000C0
:400040000000000000000000000000000000000000000000000000000000000000000000000000000000000000000000000000000000000000000000000000000000000080
:400080000000000000000000000000000000000000000000000000000000000000000000000000000000000000000000000000000000000000000000000000000000000040
:4000C0000000000000000000000000000000000000000000000000000000000000000000000000000000000000000000000000000000000000000000000000000000000000
:0200000490501A
:0C00000000012E16106900012E2D136E59
:00000001FF